:020000021000EC
:1060000000400020ADEC0100E9EC0100EBEC0100E8
:106010000000000000000000000000000000000080
:10602000000000000000000000000000EDEC010096
:106030000000000000000000EFEC0100F1EC0100A6
:10604000F3EC0100012102004DEF0100F3EC01002F
:10605000F3EC010000000000F3EC0100F3EC0100A0
:10606000F3EC0100C103020071FD0100F3EC01003B
:10607000F3EC0100F3EC0100F3EC0100F3EC0100A0
:10608000F3EC01009DA70100F3EC0100F3EC01002B
:10609000EDA70100F3EC01007D970100F3EC010096
:1060A000F3EC0100F3EC0100000000000000000030
:1060B00000000000000000000000000000000000E0
:1060C00010B5064C2378002B07D1054B002B02D0CE
:1060D000044800E000BF0123237010BD5C220020B3
:1060E00000000000244F0200044B10B5002B03D029
:1060F0000349044800E000BF10BDC0460000000096
:1061000060220020244F0200164B002B00D1144BBC
:106110009D46402292029A1A924600218B460F46D3
:106120001348144A121A0DF0DFF90F4B002B00D060
:1061300098470E4B002B00D0984700200021040008
:106140000D000D48002802D00C4800E000BF0DF003
:106150008FF92000290008F0ABF90DF073F9C04663
:1061600000000800004000200000000000000000C7
:106170005C220020443300200000000000000000EA
:1061800080B500AFBFF34F8F024B034ADA60BFF315
:106190004F8FFEE700ED00E00400FA0570DF704766
:1061A000C046180071DF7047C046180072DF7047A4
:1061B000C046180073DF7047C046180074DF704790
:1061C000C046180075DF7047C046180076DF70477C
:1061D000C046180077DF7047C046180078DF704768
:1061E000C046180079DF7047C04618007ADF704754
:1061F000C04618007BDF7047C04618007CDF704740
:10620000C04618007DDF7047C04618007EDF70472B
:10621000C04618007FDF7047C046180080DF704717
:10622000C046180081DF7047C046180082DF704703
:10623000C046180083DF7047C046180084DF7047EF
:10624000C0461800B0DF7047C0461800B1DF704785
:10625000C0461800B2DF7047C046180090DF704794
:10626000C046180091DF7047C046180092DF7047A3
:10627000C046180093DF7047C046180094DF70478F
:10628000C046180095DF7047C046180096DF70477B
:10629000C046180097DF7047C046180098DF704767
:1062A000C0461800A0DF7047C0461800A1DF704745
:1062B000C0461800A2DF7047C0461800A3DF704731
:1062C000C0461800A4DF7047C0461800A5DF70471D
:1062D000C0461800A6DF7047C0461800A7DF704709
:1062E000C0461800A8DF7047C0461800A9DF7047F5
:1062F000C0461800AADF7047C046180060DF70472C
:10630000C046180061DF7047C046180062DF704762
:10631000C046180063DF7047C046180064DF70474E
:10632000C046180065DF7047C046180066DF70473A
:10633000C046180067DF7047C046180068DF704726
:10634000C046180069DF7047C046180023DF704759
:10635000C046180024DF7047C046180025DF70478C
:10636000C046180026DF7047C046180027DF704778
:10637000C046180028DF7047C046180029DF704764
:10638000C04618002ADF7047C04618002BDF704750
:10639000C04618002CDF7047C04618002DDF70473C
:1063A000C04618002EDF7047C04618002FDF704728
:1063B000C046180030DF7047C046180031DF704714
:1063C000C046180032DF7047C046180035DF7047FE
:1063D000C046180036DF7047C046180033DF7047EC
:1063E000C046180034DF7047C046180037DF7047DA
:1063F000C046180038DF7047C046180039DF7047C4
:10640000C04618003ADF7047C04618003BDF7047AF
:10641000C04618003CDF7047C04618003DDF70479B
:10642000C04618003EDF7047C04618003FDF704787
:10643000C046180041DF7047C046180042DF704771
:10644000C046180043DF7047C046180040DF704761
:10645000C046180044DF7047C046180045DF70474B
:10646000C046180046DF7047C046180047DF704737
:10647000C046180048DF7047C046180049DF704723
:10648000C04618004ADF7047C04618004BDF70470F
:10649000C04618004CDF7047C04618004DDF7047FB
:1064A000C046180051DF7047C046180052DF7047E1
:1064B000C046180021DF7047C046180020DF704733
:1064C000C046180022DF7047C04618004EDF7047F4
:1064D000C04618004FDF7047C046180050DF7047B5
:1064E000C046180010DF7047C046180011DF704723
:1064F000C046180012DF7047C046180013DF70470F
:10650000C046180080B584B000AFF860B9607A600A
:10651000FFF736FEFEE780B582B000AF02003960BB
:10652000BB1D1A80BB1D1B883A6804481900FFF781
:10653000E9FFC046BD4602B080BDC046EFBEADDE3D
:1065400080B582B000AF7860044A7B689221180061
:10655000FFF7D8FFC046BD4602B080BDBC4902006F
:1065600080B582B000AF7860044A7B689C21180037
:10657000FFF7C8FFC046BD4602B080BDBC4902005F
:1065800080B586B000AFF860B9607A607B687B61E7
:106590007B69002B05D0054A7B69AC211800FFF709
:1065A000B1FF00231800BD4606B080BDBC49020003
:1065B00080B588B000AF05F061F80300FB61FB69AE
:1065C000BB61BB69002B05D02F4ABB69BA211800FB
:1065D000FFF798FF0C217B1800221A707B18180017
:1065E00006F0E2FA0300FB61FB697B617B69002B2B
:1065F00005D0254A7B69C0211800FFF783FF3B00C7
:1066000006330622002118000CF06EFF3B001E220C
:10661000DA803B001A7A01210A431A723B001A7A87
:1066200002218A431A723B001A7A1C218A43111CE8
:106630000C220A431A723B001A7A20218A431A72EA
:106640003B0007225A723B0010229A723B000F4A0D
:106650001A603B0001221A713A000D4B110018001C
:1066600006F04EFB0300FB61FB693B613B69002BBD
:1066700005D0054A3B69CF211800FFF743FFC0460C
:10668000BD4608B080BDC046BC490200816501001E
:106690009422002080B588B000AF3B001A780F210B
:1066A0008A43111C01220A431A703B001A780F21F9
:1066B0000A40111C10220A431A702E493B0009227D
:1066C0001800FFF79BFD0300FB61FB69BB61BB6921
:1066D000002B05D0284ABB69E0211800FFF712FF04
:1066E0000020FFF77BFD0300FB61FB697B617B6999
:1066F000002B05D0204A7B69E3211800FFF702FF39
:106700003B1D0822002118000CF0EEFE3B1D10225C
:106710001A803B1D20225A803B1D00229A803B1D7F
:10672000C8225200DA803B1D1800FFF75FFD03000E
:10673000FB61FB693B613B69002B05D00E4A3B695D
:10674000ED211800FFF7DEFE0C235B421800FFF777
:1067500041FD0300FB61FB69FB60FB68002B05D07A
:10676000054AFB68F0211800FFF7CCFEC046BD4685
:1067700008B080BDCC490200BC49020090B593B07E
:1067800000AFFB1D06221A70BB1DF4221A703B00DD
:10679000264A12681A6008210C007B183822002152
:1067A00018000CF0A1FE21007B1802221A707B1841
:1067B00001229A707B1801229A807B18FA1D9A6038
:1067C0007B18BA1DDA607B1801221A827B183A0006
:1067D0005A617B180021180001F0FBFC03007B6468
:1067E0007B6C3B643B6C002B07D0114A1423FF33B6
:1067F00019003B6C1800FFF785FE0E4B1422002198
:1068000018000CF071FE0B4B00221A70094B00228D
:106810005A60084B00221A72064BC8221A82054B96
:1068200000225A82C046BD4613B090BDD84902002E
:10683000BC4902008022002090B599B000AF3B0017
:10684000304A13CA13C312681A601323FA183B00A4
:1068500011001800FFF75EFD0300FB65FB6DBB65D3
:10686000BB6D002B07D0284A3223FF331900BB6DC4
:106870001800FFF747FE1323FB181B78180000F0E1
:1068800075FB14243B194022002118000CF02CFE4B
:106890001E4A3B191100180002F0E2F83B193C2295
:1068A000995C0F208143081C0121014399543B1935
:1068B0003C22995C0F200140081C1021014399548F
:1068C0003B193D22995C0F20814399543B193D228D
:1068D000995C0F20014099543B19180002F038FBD5
:1068E0000300FB65FB6D7B657B6D002B06D0064AC4
:1068F0009F2359007B6D1800FFF704FEC046BD467C
:1069000019B090BDE8490200BC490200DC49020010
:1069100080B500AF114B1E221A80104B9A780121CE
:106920000A439A700D4B9A7802218A439A700B4B56
:106930009A781C218A43111C0C220A439A70074B37
:106940009A7820218A439A70044B0722DA70034B0D
:1069500010221A71C046BD4680BDC0467822002074
:1069600080B58AB000AF3B1D1C22002118000CF03E
:10697000BBFD3B1D00221A603B1DA02292025A6003
:106980003B1DA02292029A603B1D03221A733B1DFD
:106990000022DA813B1D01221A743B1D00225A613C
:1069A0003B1D0C4A9A613B1D180001F0F3FD0300EA
:1069B0007B627B6A3B623B6A002B07D0064A6423FA
:1069C000FF3319003B6A1800FFF79CFDC046BD4627
:1069D0000AB080BD41650100BC49020080B588B0A5
:1069E00000AF284900235022002002F045FE03009A
:1069F000FB61FB69BB61BB69002B07D0224A722394
:106A0000FF331900BB691800FFF77CFD3B001A78C3
:106A100001210A431A703B001800FFF76FFC3B1D71
:106A20001800FFF7BFFB3B1D19000020FFF7B6FB66
:106A3000164B180002F07AFE03007B617B693B6114
:106A40003B69002B07D0104A7E23FF3319003B69B6
:106A50001800FFF757FD0E4B180002F07BFE0300F5
:106A60007B617B69FB60FB68002B07D0064A8223B1
:106A7000FF331900FB681800FFF744FDC046BD4610
:106A800008B080BD98220020BC490200756B01004F
:106A9000A56B010080B582B000AF0B4B1800FFF76B
:106AA00089FB03007B607B683B603B68002B06D062
:106AB000064AC82359003B681800FFF723FDC0466B
:106AC000BD4602B080BDC04680220020BC49020005
:106AD00080B582B000AFFFF771FB03007B607B687D
:106AE0003B603B68002B06D0054ACC2359003B682D
:106AF0001800FFF707FDC046BD4602B080BDC04686
:106B0000BC49020080B582B000AFFFF7EFFC030084
:106B10007B607B683B603B68002B06D0054AD02336
:106B200059003B681800FFF7EDFCC046BD4602B0B7
:106B300080BDC046BC49020080B582B000AF78601D
:106B40007B681B88112B04D0192B05D0102B0AD081
:106B50000CE0FFF79FFF09E07B689B79002B04D1D5
:106B6000FFF798FF01E0C04600E0C046C046BD46C2
:106B700002B080BD80B582B000AF78607B6818003D
:106B800006F04EFF7B68180001F05EFE7B6818007F
:106B900000F026F97B681800FFF7CEFFC046BD461F
:106BA00002B080BD80B582B000AF78607B6818000D
:106BB00004F050FA7B68180000F02AFDC046BD467C
:106BC00002B080BD80B584B002AF174A00230093A5
:106BD000130006220421002003F00FFE03007B6057
:106BE0007B683B603B68002B06D0104AF6235900B7
:106BF0003B681800FFF786FCFFF7F0FEFFF7D8FCB4
:106C0000FFF748FDFFF7BAFDFFF716FEFFF7A8FEF6
:106C1000FFF77EFEFFF73EFF00F00EFDC0461800B6
:106C2000BD4602B080BDC046E8220020BC4902003B
:106C300070DF7047C046180071DF7047C04618000B
:106C400072DF7047C046180073DF7047C0461800F7
:106C500074DF7047C046180075DF7047C0461800E3
:106C600076DF7047C046180077DF7047C0461800CF
:106C700078DF7047C046180079DF7047C0461800BB
:106C80007ADF7047C04618007BDF7047C0461800A7
:106C90007CDF7047C04618007DDF7047C046180093
:106CA0007EDF7047C04618007FDF7047C04618007F
:106CB00080DF7047C046180081DF7047C04618006B
:106CC00082DF7047C046180083DF7047C046180057
:106CD00084DF7047C0461800B0DF7047C046180018
:106CE000B1DF7047C0461800B2DF7047C0461800D9
:106CF00090DF7047C046180091DF7047C04618000B
:106D000092DF7047C046180093DF7047C0461800F6
:106D100094DF7047C046180095DF7047C0461800E2
:106D200096DF7047C046180097DF7047C0461800CE
:106D300098DF7047C0461800A0DF7047C0461800B3
:106D4000A1DF7047C0461800A2DF7047C046180098
:106D5000A3DF7047C0461800A4DF7047C046180084
:106D6000A5DF7047C0461800A6DF7047C046180070
:106D7000A7DF7047C0461800A8DF7047C04618005C
:106D8000A9DF7047C0461800AADF7047C046180048
:106D900060DF7047C046180061DF7047C0461800CA
:106DA00062DF7047C046180063DF7047C0461800B6
:106DB00064DF7047C046180065DF7047C0461800A2
:106DC00066DF7047C046180067DF7047C04618008E
:106DD00068DF7047C046180069DF7047C04618007A
:106DE00080B584B000AF78607B681B88112B09D018
:106DF000502B0CD0102B00D0A0E07B689A88514B10
:106E00001A809BE04F4B012252421A8096E07B6829
:106E10000633BB60BB681A884B4B1B889A4218D15B
:106E20004A4B1B7801225340DBB2002B11D0BB68C8
:106E30001A331900BB681B8B1A00454B18000CF065
:106E40004AFBBB681B8BDAB2424B1A703F4B0122E4
:106E50001A70BB681A88404B1B889A426DD10F2369
:106E6000FB1800221A70BB689B7E5BB2002B2EDAE7
:106E7000BB689B7E60221340DAB2384B1A70BB6845
:106E80009B7E1A001F2313405A1C354B1A60344B4B
:106E90001B68132B0CDDBB681A33591C314B1322B2
:106EA00018000CF018FB0F23FB1800221A7028E0C2
:106EB000BB681A33591C2A4B1B681A00294B18004F
:106EC0000CF009FB0F23FB1801221A7019E0BB68B4
:106ED0009B7E1A0060231340204A1278934210D1FF
:106EE0001E4BFF221A702048BB681A33591C1C4BDA
:106EF0001B68133B1A000CF0EEFA0F23FB1801225B
:106F00001A700F23FB181B78002B16D00F4B1B7821
:106F100001225340DBB2002B0FD0114B1B681A002B
:106F200010490B4B18000CF0D6FA0D4B1B68DAB267
:106F3000084B1A70054B01221A70C046C046BD4668
:106F400004B080BD0420002098250020B02500203A
:106F5000B6250020B4250020A02500208C2000208C
:106F6000E0250020E4250020F725002090B589B019
:106F700000AF0200FB1D1A701123FB18FF221A70CC
:106F800018217B18774A1A807B18FA1D12789A709C
:106F90001223FA187B1819000120FFF7CDFE030019
:106FA000FB61FB69002B01D0FB69D6E00C200400DB
:106FB0003B180322002118000CF096FA20003B1821
:106FC0001A780F218A43111C01220A431A703B18B8
:106FD0001A780F210A40111C10220A431A703B181C
:106FE0005A780F218A43111C01220A435A703B1818
:106FF0005A780F210A40111C10220A435A703B187C
:107000009A7806218A43111C02220A439A70564B31
:107010003A185A6114217B18FA1D12789A707B185D
:10702000524A1A80524B7A181A60514B1122BA18E0
:107030001A614F4B01221A811223FB1818884D4BFD
:107040004B4A4949FFF780FE0300FB61FB69002BB7
:1070500001D0FB6981E00C23FB18032200211800FA
:107060000CF042FA404B00225A6114217B18FA1DA1
:1070700012789A707B18404A1A80404B7A181A602E
:107080003E4B1122BA181A613C4B01221A8112237D
:10709000FB1818883A4B394A3A49FFF755FE030066
:1070A000FB61FB69002B01D0FB6956E00C2004005A
:1070B0003B180322002118000CF016FA20003B18A0
:1070C0001A780F218A43111C01220A431A703B18B7
:1070D0001A780F210A40111C10220A431A703B181B
:1070E0005A780F218A43111C01220A435A703B1817
:1070F0005A780F210A40111C10220A435A703B187B
:107100009A7806218A43111C02220A439A701E4B68
:107110003A185A6114217B18FA1D12789A707B185C
:10712000812292001A80154B7A181A60134B112293
:10713000BA181A61114B01221A811223FB18188800
:10714000124B0E4A1049FFF7FFFD0300FB61FB697C
:10715000002B01D0FB6900E000231800BD4609B0F8
:1071600090BDC0460102000008200020020200007D
:1071700060200020982500200302000078200020D5
:10718000A02500202420002040200020A825002049
:1071900080B500AF024B1B781800BD4680BDC046CD
:1071A000B025002080B500AF014B1800BD4680BD62
:1071B000B425002080B582B000AF7860034B002278
:1071C0001A70C046BD4602B080BDC046B025002042
:1071D000B0B588B000AF78607B681B789AB20E2398
:1071E000FB181A80604B1B88604A934200D1B6E0BE
:1071F0000E23FB181B88142B03D90E23FB18142213
:107200001A8010210C007B181022002118000CF0AD
:107210006BF921007B1801229A70554B1A887B1854
:107220001A807B689A1C7B18DA607B180E22BA18C9
:107230009A604D4B1B887A1811001800FFF794FDD7
:107240007B681B78132B05D87B681B789BB20133B6
:107250009AB200E014220E203B181A80454B1B689E
:10726000DBB25B01DBB260221340DAB27B681B78D1
:10727000013BDBB21F210B40DBB21343DBB28022A8
:1072800052421343DAB23C4B1A707B68991C0500DA
:107290003B181B881A00394B18000CF01CF9102100
:1072A0000C007B181022002118000CF01DF92100A1
:1072B0007B1801229A70324B1A887B181A807B182F
:1072C0002D4ADA607B1828003A189A60264B1B88F2
:1072D0007A1811001800FFF747FD7B681B78132B05
:1072E00037D97B681B789BB2123B9AB20E257B196B
:1072F0001A80204B1B685B01DBB260221340DAB2BC
:107300001D4B1A707B68153319007B191B881A00F6
:107310001A4B18000CF0DFF810210C007B1810221B
:10732000002118000CF0E0F821007B1801229A706F
:10733000134B1A887B181A807B180F4ADA607B1867
:107340007A199A60084B1B887A1811001800FFF709
:107350000BFD084B1B685A1C064B1A6000E0C04628
:10736000BD4608B0B0BDC04604200020FFFF0000AD
:107370009825002004260020082600200926002049
:10738000A825002080B582B000AF0200FB1D1A7056
:10739000FB1D1B781A001F23134001229A40034B48
:1073A0001A60C046BD4602B080BDC04600E100E0A4
:1073B00023DF7047C046180024DF7047C04618001E
:1073C00025DF7047C046180026DF7047C04618000A
:1073D00027DF7047C046180028DF7047C0461800F6
:1073E00029DF7047C04618002ADF7047C0461800E2
:1073F0002BDF7047C04618002CDF7047C0461800CE
:107400002DDF7047C04618002EDF7047C0461800B9
:107410002FDF7047C046180030DF7047C0461800A5
:1074200031DF7047C046180032DF7047C046180091
:1074300035DF7047C046180036DF7047C046180079
:1074400033DF7047C046180034DF7047C04618006D
:1074500037DF7047C046180038DF7047C046180055
:1074600039DF7047C04618003ADF7047C046180041
:107470003BDF7047C04618003CDF7047C04618002D
:107480003DDF7047C04618003EDF7047C046180019
:107490003FDF7047C046180041DF7047C046180004
:1074A00042DF7047C046180043DF7047C0461800EF
:1074B00040DF7047C046180044DF7047C0461800E0
:1074C00045DF7047C046180046DF7047C0461800C9
:1074D00047DF7047C046180048DF7047C0461800B5
:1074E00049DF7047C04618004ADF7047C0461800A1
:1074F0004BDF7047C04618004CDF7047C04618008D
:107500004DDF7047C046180051DF7047C046180075
:1075100052DF7047C046180021DF7047C046180090
:1075200020DF7047C046180022DF7047C0461800B1
:107530004EDF7047C04618004FDF7047C046180046
:1075400050DF7047C046180080B582B000AF02001F
:10755000FB1D1A702A4B00221A70FB1D1B78042B8E
:1075600046D89A00274BD3181B689F462649C1234B
:107570009B0080225202CA50234AA823DB00C82164
:10758000D1500820FFF7FEFE0AF0D2FE1C4B00226D
:107590001A7030E00AF0BBFD194B00221A702AE085
:1075A000194AA0235B00D358012B23D1164AA023EC
:1075B0005B000021D150124BFA2292005A60104B0E
:1075C00001221A7016E00AF0C5FF0D4B0F4A5A60EF
:1075D0000B4B03221A700EE00B4AA823DB00D35892
:1075E0000949FA2292009A18A823DB00CA5002E047
:1075F000C04600E0C046024B1800BD4602B080BD48
:107600001C260020F8490200008000409020002045
:1076100080B582B000AF78607B68043B012B04D852
:10762000044B1800FFF78CFF00E0C046C046BD4683
:1076300002B080BD9020002080B500AF054B18003F
:10764000FFF776FF044B1800FFF77AFFC046BD46F0
:1076500080BDC046497501009020002070DF704752
:10766000C046180071DF7047C046180072DF7047CF
:10767000C046180073DF7047C046180074DF7047BB
:10768000C046180075DF7047C046180076DF7047A7
:10769000C046180077DF7047C046180078DF704793
:1076A000C046180079DF7047C04618007ADF70477F
:1076B000C04618007BDF7047C04618007CDF70476B
:1076C000C04618007DDF7047C04618007EDF704757
:1076D000C04618007FDF7047C046180080DF704743
:1076E000C046180081DF7047C046180082DF70472F
:1076F000C046180083DF7047C046180084DF70471B
:10770000C0461800B0DF7047C0461800B1DF7047B0
:10771000C0461800B2DF7047C046180090DF7047BF
:10772000C046180091DF7047C046180092DF7047CE
:10773000C046180093DF7047C046180094DF7047BA
:10774000C046180095DF7047C046180096DF7047A6
:10775000C046180097DF7047C046180098DF704792
:10776000C0461800A0DF7047C0461800A1DF704770
:10777000C0461800A2DF7047C0461800A3DF70475C
:10778000C0461800A4DF7047C0461800A5DF704748
:10779000C0461800A6DF7047C0461800A7DF704734
:1077A000C0461800A8DF7047C0461800A9DF704720
:1077B000C0461800AADF7047C046180060DF704757
:1077C000C046180061DF7047C046180062DF70478E
:1077D000C046180063DF7047C046180064DF70477A
:1077E000C046180065DF7047C046180066DF704766
:1077F000C046180067DF7047C046180068DF704752
:10780000C046180069DF7047C046180080B582B0D6
:1078100000AF02003960BB1D1A80BB1D1B88DAB2A5
:107820003B681A70BB1D1B881B0A9AB23B68013368
:10783000D2B21A7002231800BD4602B080BDB0B5A6
:1078400088B000AFF860B9607A601C217B187A6854
:1078500012781A707B181B7802331F2B04DCFB682C
:107860005B7802331F2B01DD0C2379E01C203B18D1
:107870001B789AB21E243B191D218A1A1A801621E0
:107880007B183A1912881A803B181B780233BA68A1
:10789000D3187A1811001800FFF714FF0300BB611A
:1078A000BB69002B01D0BB695AE0FB681B78022B37
:1078B00012D11623FB181B881E22BA1812889A426E
:1078C0000AD31D23FB1809221A701E23FB18162247
:1078D000BA1812881A801BE01D23FB1808221A70A0
:1078E000FB685B78002B0DD0FB685B789BB21E2297
:1078F000BA1812889A4205D3FB685A781E23FB18DF
:107900001A8005E01E23FB181622BA1812881A8066
:107910001E257B191B88DAB21C243B191B783919E8
:10792000581C08701900BB685B180132D2B21A707B
:107930003B191B783A19591C11701A00BB689B1827
:107940001D22BA1812781A707B681A787B191B8866
:10795000DBB2D318DBB20233DAB27B681A700023D1
:107960001800BD4608B0B0BD80B584B000AF7860E7
:1079700039603B681B7804331F2B01DD0C2336E094
:107980000A23FB181800FFF78DFE0300FB60FB685D
:10799000002B01D0FB682AE03B681B785A1CD1B24F
:1079A0003A6811701A007B689B1803221A703B68B2
:1079B0001B785A1CD1B23A6811701A007B689B1868
:1079C00019221A700A23FB181A883B681B781900C1
:1079D0007B685B1819001000FFF718FF03001A00FE
:1079E0003B681B78D318DAB23B681A700023180082
:1079F000BD4604B080BD80B584B000AFF8607A6049
:107A00003B600B23FB180A1C1A70FB685B68002B99
:107A100001D107233BE03B681B780233FA681288E8
:107A20009B181F2B01DD0C2331E0FB681B88DAB2A9
:107A30003B681B78591CC8B23968087019007B680C
:107A40005B180132D2B21A703B681B785A1CD1B253
:107A50003A6811701A007B689B180B22BA181278CA
:107A60001A703B681B781A007B689818FB68596885
:107A7000FB681B881A000BF02EFD3B681A78FB6828
:107A80001B88DBB2D318DAB23B681A7000231800E7
:107A9000BD4604B080BD80B584B000AFB9607A60E7
:107AA0000F23FB18021C1A707B681B7803331F2BF3
:107AB00001DD0C2323E07B681B785A1CD1B27A6865
:107AC00011701A00BB689B1802221A707B681B7821
:107AD0005A1CD1B27A6811701A00BB689B180A222E
:107AE0001A707B681B785A1CD1B27A6811701A0020
:107AF000BB689B180F22BA1812781A70002318005E
:107B0000BD4604B080BD90B58BB000AFF8600800F2
:107B100011007B600B23FB18021C1A700A23FB1850
:107B20000A1C1A702323FB1800221A702223FB1848
:107B3000BA6B12781A7000237B6279E0FB685A688E
:107B40007B6A9B00D31814243A19100019000423EF
:107B50001A000BF0C0FC1A23F9183B190022180078
:107B6000FFF740FE0300FB61FB69002B01D0FB69BE
:107B700079E01A23FB181B780A22BA1812789A4265
:107B800053D12323FB181B78002B01D0002200E0E7
:107B900002221B217B181A70BB6B1B781A001A2358
:107BA000FB181B78D2187B181B78D3181F2B01DD0C
:107BB0000C2358E02323FB181B7801225340DBB22F
:107BC000002B16D0BB6B1B780133DAB2BB6B1A707B
:107BD000BB6B1B785A1CD1B2BA6B11701A007B6850
:107BE0009B180B22BA1812781A702323FB18012253
:107BF0001A70BB6B1B781A007B689A181A23F91845
:107C00001423FB181800FFF7EDFD0300FB61FB696F
:107C1000002B01D0FB6926E0BB6B1A781A23FB18F6
:107C20001B78D318DAB2BB6B1A707B6A01337B62A4
:107C3000FB681B881A007B6A934200DA7EE72323E5
:107C4000FB181B78002B0DD0BB6B1A7822217B18F8
:107C50001B78D31ADAB27B181B787968CB18013AF3
:107C6000D2B21A7000231800BD460BB090BD90B57B
:107C700089B002AFF860080011007B600B243B194B
:107C8000021C1A700A23FB180A1C1A707A683B1926
:107C90001978F868BB6A009313000222FFF733FFDC
:107CA00003007B617B69002B01D07B6912E07A685D
:107CB0000A23FB181978F868BB6A00931300102296
:107CC000FFF721FF03007B617B69002B01D07B69FB
:107CD00000E000231800BD4607B090BD80B582B01B
:107CE00000AF78607B681B88052B0AD97B681A88EF
:107CF000C8231B019A4206D97B681B88164A934207
:107D000001D0072323E07B685B88052B0AD97B68B9
:107D10005A88C8231B019A4206D97B685B880E4AA1
:107D2000934201D0072312E07B681B880A4A9342E2
:107D30000CD07B685B88084A934207D07B681A881E
:107D40007B685B889A4201D9072300E00023180072
:107D5000BD4602B080BDC046FFFF000080B586B0C2
:107D600000AFF860B9607A607B681B7806331F2B20
:107D700001D90C2347E0FB681800FFF7AFFF0300B1
:107D80007B617B69002B01D07B693CE07B681B78C1
:107D90005A1CD1B27A6811701A00BB689B18052270
:107DA0001A707B681B785A1CD1B27A6811701A005D
:107DB000BB689B1812221A70FB681A887B681B78B4
:107DC0001900BB685B1819001000FFF71FFD0300C6
:107DD0001A007B681B78D318DAB27B681A70FB68CC
:107DE0005A887B681B781900BB685B181900100063
:107DF000FFF70CFD03001A007B681B78D318DAB27A
:107E00007B681A7000231800BD4606B080BD80B59F
:107E100086B000AFF860B9607A60FB689B88DAB220
:107E200017217B1802321A707B681B789A1C7B180A
:107E30001B78D3181F2B01DD0C234CE07B681B78CB
:107E40005A1CD1B27A6811701A00BB689B181722AD
:107E5000BA1812780132D2B21A707B681B785A1C99
:107E6000D1B27A6811701A00BB689B18FF221A7091
:107E7000FB681A887B681B781900BB685B181900BF
:107E80001000FFF7C3FC03001A007B681B78D318AF
:107E9000DAB27B681A70FB689B88002B1AD0FB68EB
:107EA0009B68002B01D1072315E07B681B781A0023
:107EB000BB689818FB689968FB689B881A000BF0F0
:107EC0000AFB7B681A78FB689B88DBB2D318DAB2AE
:107ED0007B681A7000231800BD4606B080BD80B5CF
:107EE00088B000AFF860B9607A60FB681B6B002B4C
:107EF00001D1072370E01F23FB1800221A7062E0F3
:107F0000FB68196B1F23FB181A7813005B009B1882
:107F10009B00CB18BB61BB699B88DAB217203B186A
:107F200002321A707B681B785A1CD1B27A681170C1
:107F30001A00BB689B183A1812780132D2B21A7034
:107F40007B681B785A1CD1B27A6811701A00BB6822
:107F50009B1816221A70BB691A887B681B78190057
:107F6000BB685B1819001000FFF750FC03001A00F3
:107F70007B681B78D318DAB27B681A70BB699B8860
:107F8000002B1AD0BB699B68002B01D1072323E08B
:107F90007B681B781A00BB689818BB699968BB6935
:107FA0009B881A000BF097FA7B681A78BB699B884C
:107FB000DBB2D318DAB27B681A701F217B181A78EB
:107FC0007B1801321A70FB6834229B5C1F22BA189E
:107FD00012789A4294D300231800BD4608B080BDA1
:107FE00080B588B002AFF860B9607A6000237B6129
:107FF0007B6800221A70FB681B78002B0CD07A6813
:10800000B968FB681800FFF71AFC03007B617B6905
:10801000002B01D07B69AFE0FB689B78002B0CD074
:108020007A68BB6811001800FFF79EFC03007B61B3
:108030007B69002B01D07B699EE0FB689B88002B4D
:108040000DD0FB68181D7B68BA680121FFF7D3FCCF
:1080500003007B617B69002B01D07B698CE0FB68AE
:10806000DB68002B0FD0FB68DB681B785BB27A689B
:10807000B9681800FFF70FFD03007B617B69002BD7
:1080800001D07B6978E0FB681B8A002B11D0FB686C
:1080900010331800BA687B6800931300062202218F
:1080A000FFF7E5FD03007B617B69002B01D07B6955
:1080B00062E0FB681B8B002B11D0FB6818331800A3
:1080C000BA687B680093130007220321FFF7CFFDF6
:1080D00003007B617B69002B01D07B694CE0FB686E
:1080E0001B8C002B11D0FB6820331800BA687B680A
:1080F0000093130015221421FFF7B9FD03007B61E3
:108100007B69002B01D07B6936E0FB689B6A002B02
:108110000DD0FB689B6A7A68B9681800FFF71EFEED
:1081200003007B617B69002B01D07B6924E0FB6845
:10813000DB6A002B0DD0FB68DB6A7A68B96818002F
:10814000FFF765FE03007B617B69002B01D07B6933
:1081500012E0FB6834229B5C002B0CD07A68B96873
:10816000FB681800FFF7BBFE03007B617B69002BF7
:1081700001D07B6900E07B691800BD4606B080BD78
:1081800080B582B000AF78607B689B88002B0AD0F6
:108190007B689B68002B06D07B689B681B781A0065
:1081A0000423134001D1072300E000231800BD463B
:1081B00002B080BD80B582B000AF78607B689B88DC
:1081C000002B01D0072300E000231800BD4602B0B9
:1081D00080BD80B596B000AF786039604B23FB1846
:1081E00000221A704A23FB1800221A707B68002BA9
:1081F0001DD07B681800FFF7C3FF0300FB64FB6C16
:10820000002B01D0FB6C42E04B23FA182823F9180D
:108210007B681800FFF7E4FE0300FB64FB6C002B97
:1082200001D0FB6C33E02823FB187B6501E00023C1
:108230007B653B68002B1DD03B681800FFF7BAFF39
:108240000300FB64FB6C002B01D0FB6C1FE04A2396
:10825000FA180823F9183B681800FFF7C1FE03005D
:10826000FB64FB6C002B01D0FB6C10E00823FB18B7
:108270003B6501E000233B654B23FB1819784A233B
:10828000FB181B783A6D786DFFF7F0F903001800C2
:10829000BD4616B080BDC04670DF7047C0461800AE
:1082A00071DF7047C046180072DF7047C046180083
:1082B00073DF7047C046180074DF7047C04618006F
:1082C00075DF7047C046180076DF7047C04618005B
:1082D00077DF7047C046180078DF7047C046180047
:1082E00079DF7047C04618007ADF7047C046180033
:1082F0007BDF7047C04618007CDF7047C04618001F
:108300007DDF7047C04618007EDF7047C04618000A
:108310007FDF7047C046180080DF7047C0461800F6
:1083200081DF7047C046180082DF7047C0461800E2
:1083300083DF7047C046180084DF7047C0461800CE
:10834000B0DF7047C0461800B1DF7047C046180064
:10835000B2DF7047C046180090DF7047C046180073
:1083600091DF7047C046180092DF7047C046180082
:1083700093DF7047C046180094DF7047C04618006E
:1083800095DF7047C046180096DF7047C04618005A
:1083900097DF7047C046180098DF7047C046180046
:1083A000A0DF7047C0461800A1DF7047C046180024
:1083B000A2DF7047C0461800A3DF7047C046180010
:1083C000A4DF7047C0461800A5DF7047C0461800FC
:1083D000A6DF7047C0461800A7DF7047C0461800E8
:1083E000A8DF7047C0461800A9DF7047C0461800D4
:1083F000AADF7047C046180060DF7047C04618000B
:1084000061DF7047C046180062DF7047C046180041
:1084100063DF7047C046180064DF7047C04618002D
:1084200065DF7047C046180066DF7047C046180019
:1084300067DF7047C046180068DF7047C046180005
:1084400069DF7047C046180080B582B000AF786021
:108450007B681B781AB27B6801331B781B021BB246
:1084600013431BB29BB21800BD4602B080BDB0B52D
:1084700084B000AF78600E257C197B681800FFF788
:10848000E3FF030023807B191B88012213405A1E3F
:108490009341DBB21800BD4604B0B0BD80B582B0D8
:1084A00000AF78607B685A88084B1B889A4207D3D4
:1084B0007B685A88054B5B889A4201D8012300E00B
:1084C00000231800BD4602B080BDC04640260020F3
:1084D00080B586B000AF7860294B1B88294A93424B
:1084E00049D0294B1B780133DAB2274B1A70274B3E
:1084F0001A7B254B1B789A4215D3214B1B88244AA3
:1085000011001800FFF7DCFE03003B613B69002B04
:1085100031D01E4B9B69002B2DD01C4B9B693A69B7
:108520001000984727E0184B00221A70174B1B7C4D
:10853000002B13D0124B1B883B211800FFF7C4FE01
:1085400003007B617B69002B08D0104B9B69002BDB
:1085500004D00E4B9B697A69100098470B4B5B69FE
:10856000002B08D00C217B1800221A70074B5B6986
:108570007A1810009847C046BD4606B080BDC04678
:108580004A260020FFFF0000482600202426002065
:108590004026002090B585B000AF78601F4B7A6808
:1085A00013CA13C313CA13C312681A601C4B0022E8
:1085B0001A707B681B68002B13D07B681B68194AF4
:1085C0001000190008231A000AF085FF154B180047
:1085D000FFF78AFE0300FB60FB68002B0CD0FB68F2
:1085E00018E0104B1800FFF783FE0300FB60FB68E8
:1085F000002B01D0FB680DE00B4B012252421A8088
:108600000A4B00221A700A4A0A4B0021180002F095
:10861000B1F903001800BD4605B090BD2426002026
:1086200058260020402600204A2600204826002008
:10863000D18401005426002080B500AF044B1B6894
:10864000180002F057FA03001800BD4680BDC0466E
:108650005426002080B584B000AF284B1800FFF7E7
:108660001DFF03001A0001235340DBB2002B31D061
:10867000234B1B78002B0CD0224B5B69002B35D091
:108680003B1D00221A701F4B5B693A1D1000984772
:108690002CE01D4B1B78002B03D11A4B5B68FB6051
:1086A00002E0184B9B68FB60184B1B68F9680022BE
:1086B000180002F0D6F90300BB60BB68002B15D090
:1086C000104B9B69002B11D00E4B9B69BA681000B0
:1086D00098470BE00B4B5B69002B07D03B00012256
:1086E0001A70084B5B693A0010009847044B00224F
:1086F0001A70C046BD4604B080BDC0464C2600205E
:108700005826002024260020482600205426002039
:1087100080B582B000AF78607B689A880B4B1A8076
:108720000B497B680E2208009B18082219000AF0EA
:10873000D2FE084B00221A70074BDB89002B01D1B7
:10874000FFF788FFC046BD4602B080BD4A26002024
:108750004C260020482600202426002080B584B026
:1087600000AF78600E4B012252421A800D4B00225E
:108770001A700D4B1B68180002F0BCF90300FB6077
:10878000FB68002B08D0094B9B69002B04D0074BDA
:108790009B69FA6810009847C046BD4604B080BD8A
:1087A0004A260020482600205426002024260020A7
:1087B00080B584B000AF78607B680633FB60FB68EF
:1087C0001A88144BDB899A4220D1FB681B8B022B41
:1087D0001CD1FB681A331800FFF749FE031E02D0B4
:1087E000FFF738FF12E00C4B1B68180002F082F90B
:1087F0000300BB60BB68002B08D0064B9B69002BB5
:1088000004D0044B9B69BA6810009847C046BD4627
:1088100004B080BD242600205426002080B582B0FC
:1088200000AF786007497B68062208009B18082281
:1088300019000AF050FEFFF70DFFC046BD4602B01A
:1088400080BDC0464C26002080B582B000AF786065
:108850007B681B88112B0DD002DC102B05D018E093
:10886000122B11D0502B0AD013E07B681800FFF7B1
:108870004FFF0EE07B681800FFF770FF09E07B6890
:108880001800FFF795FF04E07B681800FFF7C6FFAC
:10889000C046C046BD4602B080BD80B584B000AFC2
:1088A0007860204A7B681000190008231A000AF03B
:1088B00012FE1C4B1800FFF717FD0300FB60FB685E
:1088C000002B29D1184B1800FFF7E8FD03001A0010
:1088D00001235340DBB2002B0FD0144B01221A703E
:1088E000134B1B880F4A11001800FFF7E9FC030027
:1088F000FB60104B01221A700EE00F4B5B69002BDE
:1089000008D008217B1801221A700B4B5B697A187A
:10891000100098470023FB60FB681800BD4604B0B8
:1089200080BDC046402600204C260020582600204E
:108930004A260020482600202426002070DF7047A9
:10894000C046180071DF7047C046180072DF7047DC
:10895000C046180073DF7047C046180074DF7047C8
:10896000C046180075DF7047C046180076DF7047B4
:10897000C046180077DF7047C046180078DF7047A0
:10898000C046180079DF7047C04618007ADF70478C
:10899000C04618007BDF7047C04618007CDF704778
:1089A000C04618007DDF7047C04618007EDF704764
:1089B000C04618007FDF7047C046180080DF704750
:1089C000C046180081DF7047C046180082DF70473C
:1089D000C046180083DF7047C046180084DF704728
:1089E000C046180090B585B000AF786039600F20A0
:1089F0003B1800221A703B181B783A18591C11704A
:108A00001A007B689B183A6812781A703B181B781A
:108A10003A18591C11701A007B689B183A685278F2
:108A20001A700E243B193A181278023A51424A4100
:108A30001A703B191B7801225340DBB2002B05D082
:108A4000064B1A0020210020FDF75CFD0F23FB18C8
:108A50001B781800BD4605B090BDC0460C4A020008
:108A600080B582B000AF786039603B6818000AF0CA
:108A70007BFD03009AB27B681A807B683A685A6073
:108A8000C046BD4602B080BD80B582B000AF0200D6
:108A90003960BB1D1A80BB1D1B88DAB23B681A7097
:108AA000BB1D1B881B0A9AB23B680133D2B21A70F5
:108AB00002231800BD4602B080BD70DF7047C0467B
:108AC000180071DF7047C046180072DF7047C0465B
:108AD000180073DF7047C046180074DF7047C04647
:108AE000180075DF7047C046180076DF7047C04633
:108AF000180077DF7047C046180078DF7047C0461F
:108B0000180079DF7047C04618007ADF7047C0460A
:108B100018007BDF7047C04618007CDF7047C046F6
:108B200018007DDF7047C04618007EDF7047C046E2
:108B300018007FDF7047C046180080DF7047C046CE
:108B4000180081DF7047C046180082DF7047C046BA
:108B5000180083DF7047C046180084DF7047C046A6
:108B60001800B0DF7047C0461800B1DF7047C0463C
:108B70001800B2DF7047C0461800A0DF7047C0463B
:108B80001800A1DF7047C0461800A2DF7047C0463A
:108B90001800A3DF7047C0461800A4DF7047C04626
:108BA0001800A5DF7047C0461800A6DF7047C04612
:108BB0001800A7DF7047C0461800A8DF7047C046FE
:108BC0001800A9DF7047C0461800AADF7047C046EA
:108BD0001800F0B58BB000AFF861B9610F20182410
:108BE0003B191B18BA69511E8A411A703B191B1890
:108BF0001B7801225340DBB2002B05D0364B1A0004
:108C000033210020FDF77EFC0E2018243B191B1891
:108C1000FA69511E8A411A703B191B181B780122F0
:108C20005340DBB2002B05D02B4B1A00342100201F
:108C3000FDF768FCBB695C681B68DAB2FB691A70F7
:108C4000BB695C681B682206190A396139691143DE
:108C50003961230A7B61FB6901333A7C1A70BB6975
:108C60005C681B682204190CB960B9681143B960CB
:108C7000230CFB60FB6902333A7A1A70BB695C68AB
:108C80001B6822021D0E1543260EFB690333EAB250
:108C90001A70BB695C681B6823003B6000237B6023
:108CA000FB6904333A781A70BB699A68FB6905332B
:108CB000D2B21A70BB699B681A0AFB690633D2B23A
:108CC0001A70BB699B681A0CFB690733D2B21A7021
:108CD000C046BD460BB0F0BD484A020090B585B015
:108CE00000AF786039600F23FB1800221A700E2045
:108CF0003B183A68511E8A411A703B181B780122B2
:108D00005340DBB2002B05D0374B1A004B2100201B
:108D1000FDF7F8FB0D203B187A68511E8A411A7046
:108D20003B181B7801225340DBB2002B05D02E4BA1
:108D30001A004C210020FDF7E5FB0F243B191B789E
:108D40003A19591C11701A007B689B183A681278FE
:108D50001A703B6858883B191B787A68D318190039
:108D6000FFF792FE030019003B193A1912788A188E
:108D70001A703B6898883B191B787A68D3181900D9
:108D8000FFF782FE030019003B193A1912788A187E
:108D90001A703B68D8883B191B787A68D318190079
:108DA000FFF772FE0300190020003B183A181278F2
:108DB0008A181A700C243B193A181278073A514253
:108DC0004A411A703B191B7801225340DBB2002B39
:108DD00005D0054B1A0054210020FDF793FBC04637
:108DE000BD4605B090BDC046484A0200F0B595B0FA
:108DF00000AFB96011007B600E23FB18021C1A80C3
:108E00000C23FB180A1C1A804F203B18BA68511E0D
:108E10008A411A703B181B7801225340DBB2002BA9
:108E200005D0494B1A006D210020FDF76BFB4E2049
:108E30003B180C22BA181288511E8A411A703B182E
:108E40001B7801225340DBB2002B05D03E4B1A00A9
:108E50006E210020FDF756FB2C2004003B181C223D
:108E6000002118000AF040FB20003B181A7802216C
:108E70000A431A7004003B1900225A603B19002271
:108E8000DA603B1900221A613B1900225A613B1932
:108E900000229A6148217B1801229A707B180E20CB
:108EA0003A1812881A8014257B1903220021180011
:108EB0000AF01AFB7B197A6812781A707B197A68A3
:108EC00052785A707B199A7806218A43111C022223
:108ED0000A439A707B199A7808218A439A707B1901
:108EE0009A7810218A439A707B199A7801218A43D3
:108EF0009A7018210E007B181422002118000AF025
:108F0000F3FA31007B184822BA181A607B187A19D4
:108F10005A607B180C203A1812881A817B1800229C
:108F20005A817B183A1812889A817B18BA681A619C
:108F3000064B1888BB6E7A183919FFF726FE030016
:108F40001800BD4615B0F0BD484A02005C2600205E
:108F500090B58BB002AF786018217B1801229A700F
:108F60007B18814A1A80814A7B1819000120FFF77B
:108F700004FE0300FB61FB69002B01D0FB69EEE0FE
:108F80007B681B88002B14D07B6859687B681A8823
:108F90007B683C331800764C764B0093030020002E
:108FA000FFF724FF0300FB61FB69002B01D0FB6985
:108FB000D5E07B681B89002B14D07B68D9687B685F
:108FC0001A897B683C3318006B4C6C4B0093030090
:108FD0002000FFF70BFF0300FB61FB69002B01D0B2
:108FE000FB69BCE07B681B8A002B14D07B68596945
:108FF0007B681A8A7B683C331800614C614B009394
:1090000003002000FFF7F2FE0300FB61FB69002B69
:1090100001D0FB69A3E07B681B8B002B14D07B681D
:10902000D9697B681A8B7B683C331800564C574BC8
:10903000009303002000FFF7D9FE0300FB61FB69EA
:10904000002B01D0FB698AE07B681B8C002B14D0BD
:109050007B68596A7B681A8C7B683C3318004C4CDF
:109060004C4B009303002000FFF7C0FE0300FB61A0
:10907000FB69002B01D0FB6971E07B681B8D002B25
:1090800014D07B68D96A7B681A8D7B683C331800E2
:10909000414C424B009303002000FFF7A7FE030062
:1090A000FB61FB69002B01D0FB6958E07B681B6BFF
:1090B000002B19D07B681A6B10243B191100180083
:1090C000FFF787FD7B683C331A0039193448354B6C
:1090D000009313000822FFF789FE0300FB61FB6980
:1090E000002B01D0FB693AE07B685B6B002B17D04B
:1090F0007B685B6B19687B685B6B1B799AB27B68DA
:109100003C331800284C294B009303002000FFF744
:109110006DFE0300FB61FB69002B01D0FB691EE0C3
:109120007B689B6B002B19D07B689A6B08243B19DA
:1091300011001800FFF7D2FD7B683C331A00391983
:109140001B481C4B009313000722FFF74FFE030040
:10915000FB61FB69002B01D0FB6900E000231800D4
:10916000BD4609B090BDC0460A1800005C2600202C
:10917000292A000060260020242A000068260020FA
:10918000252A000070260020272A000078260020CB
:10919000262A000080260020282A00008826002099
:1091A000232A0000902600202A2A0000982600206A
:1091B000502A0000A026002023DF7047C046180078
:1091C00024DF7047C046180025DF7047C0461800EE
:1091D00026DF7047C046180027DF7047C0461800DA
:1091E00028DF7047C046180029DF7047C0461800C6
:1091F0002ADF7047C04618002BDF7047C0461800B2
:109200002CDF7047C04618002DDF7047C04618009D
:109210002EDF7047C04618002FDF7047C046180089
:1092200030DF7047C046180031DF7047C046180075
:1092300032DF7047C046180035DF7047C04618005F
:1092400036DF7047C046180033DF7047C04618004D
:1092500034DF7047C046180037DF7047C04618003B
:1092600038DF7047C046180039DF7047C046180025
:109270003ADF7047C04618003BDF7047C046180011
:109280003CDF7047C04618003DDF7047C0461800FD
:109290003EDF7047C04618003FDF7047C0461800E9
:1092A00041DF7047C046180042DF7047C0461800D3
:1092B00043DF7047C046180040DF7047C0461800C3
:1092C00044DF7047C046180045DF7047C0461800AD
:1092D00046DF7047C046180047DF7047C046180099
:1092E00048DF7047C046180049DF7047C046180085
:1092F0004ADF7047C04618004BDF7047C046180071
:109300004CDF7047C04618004DDF7047C04618005C
:1093100051DF7047C046180052DF7047C046180042
:1093200021DF7047C046180020DF7047C046180094
:1093300022DF7047C04618004EDF7047C046180055
:109340004FDF7047C046180050DF7047C046180016
:1093500010DF7047C046180011DF7047C046180084
:1093600012DF7047C046180013DF7047C046180070
:1093700080B582B000AF78607B68032213405A4208
:109380005341DBB21800BD4602B080BD70DF7047AC
:10939000C046180071DF7047C046180072DF704782
:1093A000C046180073DF7047C046180074DF70476E
:1093B000C046180075DF7047C046180076DF70475A
:1093C000C046180077DF7047C046180078DF704746
:1093D000C046180079DF7047C04618007ADF704732
:1093E000C04618007BDF7047C04618007CDF70471E
:1093F000C04618007DDF7047C04618007EDF70470A
:10940000C04618007FDF7047C046180080DF7047F5
:10941000C046180081DF7047C046180082DF7047E1
:10942000C046180083DF7047C046180084DF7047CD
:10943000C0461800B0DF7047C0461800B1DF704763
:10944000C0461800B2DF7047C046180090DF704772
:10945000C046180091DF7047C046180092DF704781
:10946000C046180093DF7047C046180094DF70476D
:10947000C046180095DF7047C046180096DF704759
:10948000C046180097DF7047C046180098DF704745
:10949000C0461800A0DF7047C0461800A1DF704723
:1094A000C0461800A2DF7047C0461800A3DF70470F
:1094B000C0461800A4DF7047C0461800A5DF7047FB
:1094C000C0461800A6DF7047C0461800A7DF7047E7
:1094D000C0461800A8DF7047C0461800A9DF7047D3
:1094E000C0461800AADF7047C046180060DF70470A
:1094F000C046180061DF7047C046180062DF704741
:10950000C046180063DF7047C046180064DF70472C
:10951000C046180065DF7047C046180066DF704718
:10952000C046180067DF7047C046180068DF704704
:10953000C046180069DF7047C046180080B584B087
:1095400000AFF8607A600A203B180A1C1A807A681B
:109550003B181B8811001800FCF7DDFFC046BD4614
:1095600004B080BD80B584B000AF3D4B1B78DBB24A
:1095700001225340DBB2002B00D06AE0394B1A685D
:109580000F23FB1851424A411A70374B1A680E23B9
:10959000FB1851424A411A700F23FB181B78012215
:1095A0005340DBB2002B1CD03B1D1800FFF7B0FE70
:1095B0000300BB60BB68052B04D10F23FB180122FD
:1095C0001A700EE0BB68002B06D0284ABB686921E0
:1095D0001800FCF797FF04E0224B1B687A68100024
:1095E00098470E23FB181B7801225340DBB2002B57
:1095F00024D01F4B1A88BB1C1A801E4B1B68BA1C38
:1096000011001800FFF776FF0300BB60BB68052B55
:1096100004D10E23FB1801221A700FE0BB68002B47
:1096200006D0124ABB6880211800FCF76BFF05E0EA
:109630000D4B1A680F4B1B68180090470F23FB183F
:109640001B78002BA8D00E23FB181B78002B02D10F
:10965000A2E7C04600E0C046BD4604B080BDC0469B
:10966000B2260020B8260020B4260020804A02003E
:10967000B0260020AC26002080B586B000AFF86090
:10968000B9603B60BB1D1A80BB68002B01D107236A
:109690002AE0BB681800FFF76BFE03001A000123E5
:1096A0005340DBB2002B01D007231DE0104BBA68FA
:1096B0001A60104BBA1D12881A800F4B3A681A6054
:1096C0000E4AFB6811001800FFF742FE03007B61A1
:1096D0007B69002B01D07B6906E0094B01221A70DF
:1096E0001620FFF775FD03001800BD4606B080BDCB
:1096F000AC260020B0260020A82600203D950100C1
:10970000B226002080B582B000AFFFF725FE03002F
:109710007B607B685A1E9341DAB2034B1A707B68F8
:109720001800BD4602B080BDB226002080B582B0D0
:1097300000AF78607B68002B01D10E2303E0044B5F
:109740007A681A6000231800BD4602B080BDC0468A
:10975000B426002080B582B000AF78607B68002B13
:1097600001D10E2303E0044B7A681A60002318002D
:10977000BD4602B080BDC046B826002080B582B08C
:1097800000AF0E4B1B68002B11D00C4B1B68984789
:1097900003007B607B683B603B68002B09D0084A74
:1097A000992359003B681800FCF7ACFE01E0FFF775
:1097B000D9FEC046BD4602B080BDC046A8260020E6
:1097C000804A020080B582B000AF78607B680322D7
:1097D00013405A425341DBB21800BD4602B080BD6F
:1097E00080B582B000AF0200FB1D1A70FB1D1B7814
:1097F0001A001F23134001229A40034B1A60C046EF
:10980000BD4602B080BDC04600E100E080B582B038
:1098100000AF0200FB1D1A70FB1D1B781A001F23EE
:10982000134001229A401300034A19008023D150AB
:10983000C046BD4602B080BD00E100E080B582B008
:1098400000AF0200FB1D1A70FB1D1B781A001F23BE
:10985000134001229A401300044A190080235B0040
:10986000D150C046BD4602B080BDC04600E100E018
:1098700080B582B000AF0200FB1D1A70FB1D1B7883
:109880001A001F23134001229A401300044A1900B2
:10989000C0235B00D150C046BD4602B080BDC0466B
:1098A00000E100E090B583B000AF02003960FB1D1D
:1098B0001A70FB1D1B787F2B32D92F4AFB1D1B789A
:1098C00019000F230B40083B9B0806339B00D3185D
:1098D00004331B68FA1D1278110003220A40D200DB
:1098E000FF2191400A00D2431A4011003B689B01BE
:1098F000FF221A40FB1D1B78180003230340DB00E6
:109900009A401D48FB1D1B781C000F232340083B79
:109910009B080A4306339B00C31804331A6027E0F0
:10992000164AFB1D1B785BB29B08C0339B009B58FB
:10993000FA1D1278110003220A40D200FF21914043
:109940000A00D2431A4011003B689B01FF221A40D3
:10995000FB1D1B78180003230340DB009A400748D7
:10996000FB1D1B785BB29B080A43C0339B001A5057
:10997000C046BD4603B090BD00ED00E000E100E050
:1099800080B582B000AF0200FB1D1A70FB1D1B7872
:109990007F2B18D9174AFB1D1B7819000F230B408A
:1099A000083B9B0806339B00D31804331A68FB1D41
:1099B0001B78190003230B40DB00DA4013009B09DE
:1099C0000322134012E00C4AFB1D1B785BB29B087C
:1099D000C0339B009A58FB1D1B78190003230B40D2
:1099E000DB00DA4013009B09032213401800BD4638
:1099F00002B080BD00ED00E000E100E023DF704731
:109A0000C046180024DF7047C046180025DF7047A5
:109A1000C046180026DF7047C046180027DF704791
:109A2000C046180028DF7047C046180029DF70477D
:109A3000C04618002ADF7047C04618002BDF704769
:109A4000C04618002CDF7047C04618002DDF704755
:109A5000C04618002EDF7047C04618002FDF704741
:109A6000C046180030DF7047C046180031DF70472D
:109A7000C046180032DF7047C046180035DF704717
:109A8000C046180036DF7047C046180033DF704705
:109A9000C046180034DF7047C046180037DF7047F3
:109AA000C046180038DF7047C046180039DF7047DD
:109AB000C04618003ADF7047C04618003BDF7047C9
:109AC000C04618003CDF7047C04618003DDF7047B5
:109AD000C04618003EDF7047C04618003FDF7047A1
:109AE000C046180041DF7047C046180042DF70478B
:109AF000C046180043DF7047C046180040DF70477B
:109B0000C046180044DF7047C046180045DF704764
:109B1000C046180046DF7047C046180047DF704750
:109B2000C046180048DF7047C046180049DF70473C
:109B3000C04618004ADF7047C04618004BDF704728
:109B4000C04618004CDF7047C04618004DDF704714
:109B5000C046180051DF7047C046180052DF7047FA
:109B6000C046180021DF7047C046180020DF70474C
:109B7000C046180022DF7047C04618004EDF70470D
:109B8000C04618004FDF7047C046180050DF7047CE
:109B9000C046180080B582B000AF7860C046C046AD
:109BA000C046C046C046C046C046C046C046C04685
:109BB000C046C046C046C0467B68013B7B60002B68
:109BC000ECD1C046BD4602B080BD80B582B000AFCA
:109BD0000B4B5B68DB05DB0D7B607B68002B0AD0E1
:109BE0007B68103B3B603B685BB21800FFF7C8FE28
:109BF0000300DBB200E004231800BD4602B080BDC4
:109C000000ED00E080B582B000AF78600649A12386
:109C1000DB007A68CA5003211120FFF743FEC046DB
:109C2000BD4602B080BDC0460010014080B500AF07
:109C30000E49D1239B0080225202CA500B49C123F6
:109C40009B0080225202CA501120FFF711FE112002
:109C5000FFF7C6FD054B01221A602F20FFF79AFF80
:109C6000034B01221A70C046BD4680BD0010014062
:109C7000E426002080B500AF1120FFF7C7FD104992
:109C8000D2239B0080225202CA500D49C2239B005E
:109C900080225202CA500A4B01225A602F20FFF73D
:109CA00079FF074B01229A60064B00221A602F2091
:109CB000FFF770FF044B00221A70C046BD4680BDFE
:109CC00000100140D0260020E426002080B500AF1F
:109CD000024A034BD3581800BD4680BD0010014016
:109CE0000405000080B582B000AF786039607A6802
:109CF0003B68D31A1B021B0A1800BD4602B080BD88
:109D000080B582B000AF78600449A823DB007A6890
:109D1000CA50C046BD4602B080BDC04600100140DA
:109D200090B587B000AF78604C4B19687A68130023
:109D3000DB009B189B00CB18BB60494B1B680133B1
:109D400003D1474B7A681A6084E0BB685968434B7B
:109D50001868434B1A681300DB009B189B00C3185C
:109D60005B6899421ED83D4B19683D4B1A68130039
:109D7000DB009B189B00CB185868BB685968374BB1
:109D80001C68374B1A681300DB009B189B00E31814
:109D9000421A5A60324B1A68BB681A62304B7A68B2
:109DA0001A6057E0BB685B68FB602D4B1B687B61EA
:109DB0002B4B1B683B6117E0284B19683A6913006D
:109DC000DB009B189B00CB185B68FA68D31AFB601A
:109DD0003B697B61214B19683A691300DB009B18D2
:109DE0009B00CB181B6A3B613B6901330BD01B4BBB
:109DF00019683A691300DB009B189B00CB185B685D
:109E0000FA689A42D8D83B69013313D0134B1968CA
:109E10003A691300DB009B189B00CB1859680F4B65
:109E200018683A691300DB009B189B00C318FA6896
:109E30008A1A5A60BB68FA685A60BB683A691A6243
:109E4000064B19687A691300DB009B189B00CB183E
:109E50007A681A62C046BD4607B090BDC026002091
:109E6000CC26002080B586B000AF78603A4B1B68E6
:109E70007B617B693B610FE03A697B689A420FD056
:109E80003B697B61354B19683A691300DB009B180D
:109E90009B00CB181B6A3B613B690133ECD100E0AE
:109EA000C0463B69013353D07A693B699A4211D16C
:109EB0002A4B1968284B1A681300DB009B189B007B
:109EC000CB181A6A244B1A60234B1B68013301D14B
:109ED000FFF7D0FE214B19683A691300DB009B188D
:109EE0009B00CB185B68FB601C4B19683A69130038
:109EF000DB009B189B00CA18184B186879690B0087
:109F0000DB005B189B00C318126A1A62134B1968B6
:109F10007A691300DB009B189B00CB181B6A3B611E
:109F20003B69013315D00D4B19683A691300DB000A
:109F30009B189B00CB185968084B18683A691300A6
:109F4000DB009B189B00C318FA688A185A6000E06F
:109F5000C046BD4606B080BDCC260020C0260020ED
:109F600080B500AF1120FFF769FCC046BD4680BD3B
:109F700080B500AF1420FFF761FCC046BD4680BD30
:109F800080B584B000AF7860124B1B68002B17D0EF
:109F9000104B1A687B6898697B68DB6919009047E9
:109FA0000300FB60FB68BB60BB68002B0ED00A4A55
:109FB0006423FF331900BB681800FCF7A3FA05E01F
:109FC0007B689A697B68DB6918009047C046BD468C
:109FD00004B080BDE0260020BC4A020080B584B0F9
:109FE00000AF2C4B1B68013350D000237B60FFF780
:109FF0006DFE0200284B1B6819001000FFF772FE6F
:10A000000300BB60234B1B68FB601EE0234B1968F9
:10A01000FA681300DB009B189B00CB183B603B6881
:10A020005B68BA689A4214D33B685B68BA68D31A13
:10A03000BB603B685B687A68D3187B603B681B6ACF
:10A04000FB603B681800FFF79BFFFB680133DDD125
:10A0500000E0C046124B1A78124B1B789A420CD182
:10A06000104B1B780133DAB20E4B1A700D4B1B7874
:10A07000022B02D10B4B00221A700A4B1B781A00DC
:10A08000094B92007968D150FFF772FFC046BD4678
:10A0900004B080BDCC260020D0260020C0260020A1
:10A0A000DC260020DD260020D426002080B582B0EA
:10A0B00000AF7860184B1A78184B1B789A4223D05F
:10A0C000154B1B780133DAB2134B1A70124B1B7805
:10A0D000022B02D1104B00221A700F4B1B781A0072
:10A0E0000F4B9200D2587B681A607B681A680D4B40
:10A0F0001B68D2180B4B1A600A4B1B681B021A0A0A
:10A10000084B1A60012303E07B6800221A600023D9
:10A110001800BD4602B080BDDC260020DD260020F0
:10A12000D4260020D026002080B586B000AF404B5A
:10A130001B683B611723FB183E4A12781A7063E0D4
:10A140003D4B1A681723FB181B78DB00D318FB6004
:10A150001623FB18FA6812781A704EE0FB685968EB
:10A1600016203B181A7813005B009B18DB00CB18F5
:10A17000BB603B181A783B1801321A70FB689B7859
:10A180003A1812789A4203D11623FB1800221A704B
:10A19000BB681B78022B02D0032B28D02CE0274B66
:10A1A0001968BB685A681300DB009B189B00CB182A
:10A1B0003B603B681B7D002B1FD0BB685B681800B1
:10A1C000FFF750FE3B6800221A7516E01B4B19681A
:10A1D000174B1A681300DB009B189B00CB187B60A1
:10A1E0007B6800221A757B681A6A114B1A60104B43
:10A1F0001B680133EAD100E0C046FB685B78162299
:10A20000BA1812789A42A9D11722BB181B78BA182B
:10A21000591E1170002B93D1054B1B683A69D31A54
:10A220005A1E9341DBB21800BD4606B080BDC04641
:10A23000CC260020C4260020C8260020C0260020EE
:10A2400080B588B000AFF860B9607A600023FB6128
:10A2500042E0254B1968254B1A681300DB009B1858
:10A260009B00CB18BB61BB695B68FA689A4206D257
:10A27000BB695A68FB68D21ABB695A6030E0BB6997
:10A280005B68FA68D31AFB60BB695B68FA69D3182C
:10A29000FB61BB6900225A60BB6900221A75134B2F
:10A2A0001B687B61BB691A6A104B1A60BB691B692A
:10A2B000002B11D0BA68FB69D3181B021A0ABB69BC
:10A2C0009A60BB691A69BB69DA607B681A68BB6906
:10A2D0001A627B687A691A60044B1B680133B8D133
:10A2E000C046BD4608B080BDC0260020CC26002058
:10A2F00080B58AB000AF7860624B1B68BB612723D2
:10A30000FB18614A12781A70A7E0604B1A6827237D
:10A31000FB181B78DB00D3187B6193E07B6801336B
:10A320000ED07B683B625A4B19683A6A1300DB0017
:10A330009B189B00CB18FB61FB691B6A7B603EE0AE
:10A340007B695A687B691B7819000B005B005B18FE
:10A35000DB00D3183B617B691B780133DAB27B6980
:10A360001A707B691A787B699B789A4202D17B6963
:10A3700000221A703B695B683B62454B19683A6A78
:10A380001300DB009B189B00CB18FB613B691B781B
:10A39000012B57D1FB691B7D002B00D052E03B699C
:10A3A0009A68FB699A603B69DA68FB69DA603B6925
:10A3B0001A69FB691A613B695A69FB69DA61FB69D1
:10A3C0009A68344B1B68D31A1B021B0A324A934209
:10A3D0000ED8FB699A682F4B1B6819001000FFF715
:10A3E00081FC0200FB69DB68D218FB695A6018E047
:10A3F000284B1A68FB699B6819001000FFF772FC74
:10A400000300FB60FB69DB68FA689A4206D2FB69CD
:10A41000DA68FB68D21AFB695A6002E0FB69002225
:10A420005A60FB6900229A60FB690022DA60FB69CE
:10A4300001221A75FB69012252421A623B6A180016
:10A44000FFF76EFC7B68013300D067E77B691A7801
:10A450007B695B789A4200D060E72722BB181B78A3
:10A46000BA18591E1170002B00D04EE7054B1B681F
:10A47000BA69D31A5A1E9341DBB21800BD460AB01E
:10A4800080BDC046CC260020C4260020C82600205F
:10A49000C0260020D0260020FEFF7F0090B589B0A6
:10A4A00000AF78602A4B1B6801334BD0294B1968E9
:10A4B000274B1A681300DB009B189B00CB185B68C6
:10A4C000FB61FFF703FC0300BB61234B1B687B614F
:10A4D0007A69BB6911001800FFF704FC030003331D
:10A4E0003B611E4B1B7801225340DBB2002B01D095
:10A4F000FFF79CFBFA693B69934200D213007A692B
:10A50000D3187B617B691B021B0A7B617B69180086
:10A51000FFF7F6FBFFF7DAFB0300FB60BA69FB68A5
:10A5200011001800FFF7DEFB0300DC1CBA697B6931
:10A5300011001800FFF7D6FB03009C4204D9FFF777
:10A540000FFD01E0FFF796FBC046BD4609B090BD88
:10A55000CC260020C0260020D0260020E4260020A3
:10A56000B0B586B000AF01235B427B601C4B1B681B
:10A570003B611C4B1B68FB600B257C193B001800E2
:10A58000FFF794FD030023701723FC18FFF7CCFDA1
:10A59000030023707B191B78002B09D03B683A1D00
:10A5A00039691800FFF74CFE1723FB1801221A70B7
:10A5B0007B681800FFF79CFE031E03D01723FB18CF
:10A5C00001221A701723FB181B78002B03D0FB689D
:10A5D0001800FFF763FFC046BD4606B0B0BDC046D9
:10A5E000D0260020CC26002080B582B000AF786055
:10A5F00039603B68DAB27B685A70C046BD4602B02B
:10A6000080BD80B584B000AF786039607B685B78CE
:10A610000133FB607B689B781A00FB68934201D191
:10A620000023FB607B681B781A00FB68934201D112
:10A6300000230EE03B68FA681A607B685A687B6802
:10A640005B7819000B005B005B18DB00D318BB6064
:10A65000BB681800BD4604B080BD80B586B000AFB1
:10A66000F860B9607A603B601B4B1A68FB68DB00DE
:10A67000D3181022BA1811001800FFF7C2FF030008
:10A680007B617B69002B01D1042320E07B690122DF
:10A690001A707B69BA685A60FFF718FB02007B6981
:10A6A0009A607B697A68DA607B693A681A617B69CB
:10A6B0003A6A5A61084B1A68FB68DB00D3183A699A
:10A6C00011001800FFF790FFFFF752FC002318005D
:10A6D000BD4606B080BDC046C826002080B584B007
:10A6E00000AF78603960144B1A687B68DB00D318C0
:10A6F0000822BA1811001800FFF783FF0300FB605F
:10A70000FB68002B01D1042312E0FB6802221A70BF
:10A71000FB683A685A60084B1A687B68DB00D318FC
:10A72000BA6811001800FFF75FFFFFF721FC002354
:10A730001800BD4604B080BDC826002080B584B096
:10A7400000AF7860144B1A687B68DB00D3180822CE
:10A75000BA1811001800FFF754FF0300FB60FB68F4
:10A76000002B01D1042313E0FB6803221A70FB685D
:10A77000012252425A60084B1A687B68DB00D318EA
:10A78000BA6811001800FFF72FFFFFF7F1FB002355
:10A790001800BD4604B080BDC826002080B500AFBB
:10A7A000114AA0235B000021D1500F4AA2235B0075
:10A7B0000021D1500C4AA4235B000021D1500A4A49
:10A7C000A6235B000021D150074A80235B000021B3
:10A7D000D150054A82235B000021D150FFF7FEFBD8
:10A7E000C046BD4680BDC0460010014080B500AFE8
:10A7F000FFF7B6FEC046BD4680BD80B586B000AF4F
:10A80000F860080011007B600B23FB18021C1A7013
:10A810000A23FB180A1C1A707B681800FEF7D2FF87
:10A8200003001A0001235340DBB2002B01D00723A1
:10A830008AE07B68002B01D1072385E0FFF71AFA35
:10A84000434B3A6A1A60434B0B22BA1812781A70BB
:10A85000414B7A681A6000237B6116E03E4B196811
:10A860007A691300DB009B189B00CB1800221A703A
:10A87000394B19687A691300DB009B189B00CB18D1
:10A8800000221A757B6901337B610B23FB181B784F
:10A890007A699A42E2DB0B23FB181A781300DB007B
:10A8A0009B189B001A007B689B187B602B4B032234
:10A8B0001A702B4B7A681A607B6818337B60002310
:10A8C0007B6120E0264B1A687B69DB00D3183B6173
:10A8D0003B6900221A703B6900225A703B690A21C9
:10A8E0007A1812789A703B697A685A607B181A78DD
:10A8F00013005B009B18DB001A007B689B187B60D1
:10A900007B6901337B617B69022BDBDD154B012207
:10A9100052421A60144B00221A70144B00221A7013
:10A920001420FEF7A5FF03211420FEF7BBFF14201F
:10A93000FEF756FFFB681800FFF764F9FFF7C6F94A
:10A9400002000B4B1A6000231800BD4606B080BD04
:10A95000E0260020BC260020C0260020C4260020BF
:10A96000C8260020CC260020DC260020DD26002082
:10A97000D026002080B586B000AFF8607A600B2347
:10A98000FB180A1C1A70284B1B68002B01D10823E6
:10A9900046E07B68002B01D1072341E0FB68002BD8
:10A9A00001D107233CE000237B6132E01E4B196894
:10A9B0007A691300DB009B189B00CB181B78002BD7
:10A9C00024D1194B19687A691300DB009B189B008E
:10A9D000CB1801221A70144B19687A691300DB0036
:10A9E0009B189B00CB180B22BA1812785A700E4B8A
:10A9F00019687A691300DB009B189B00CB187A68F2
:10AA00009A617A69FB681A60002309E07B69013367
:10AA10007B61064B1B781A007B699342C6DB0423DB
:10AA20001800BD4606B080BDC0260020BC26002010
:10AA300080B582B000AFFFF7C8F80300012B02D049
:10AA4000032B03D005E000237B6005E001237B603E
:10AA500002E002237B60C0467B681800BD4602B05E
:10AA600080BD90B589B002AFF860B9607A601F4BC5
:10AA70001B68002B01D1082333E01D4B1B781A0003
:10AA8000FB68934202D2BB68042B01D8072328E05D
:10AA9000164B1968FA681300DB009B189B00CB1853
:10AAA0001B78012B01D008231BE0104B1968FA68B2
:10AAB0001300DB009B189B00CB185B78012B01D1A6
:10AAC000BB6800E000237B61FFF7B2FF04007869F8
:10AAD000BA68F9687B68009303002000FFF7BDFDAA
:10AAE00003001800BD4607B090BDC046C026002038
:10AAF000BC26002080B582B000AF7860134B1B6885
:10AB0000002B01D108231DE0114B1B781A007B6834
:10AB1000934201D3072315E00C4B19687A681300A0
:10AB2000DB009B189B00CB181B78012B01D008235E
:10AB300008E0FFF77DFF02007B6819001000FFF7B7
:10AB4000CDFD03001800BD4602B080BDC026002028
:10AB5000BC26002080B500AF074B1B68002B01D13D
:10AB6000082306E0FFF764FF03001800FFF7E6FD87
:10AB700003001800BD4680BDC026002080B582B00D
:10AB800000AF7860FFF7A2F802007B681A6000232C
:10AB90001800BD4602B080BD80B584B000AFF8603B
:10ABA000B9607A60BA68FB6811001800FFF79AF87C
:10ABB00002007B681A6000231800BD4604B080BD07
:10ABC00023DF7047C046180024DF7047C0461800D6
:10ABD00025DF7047C046180026DF7047C0461800C2
:10ABE00027DF7047C046180028DF7047C0461800AE
:10ABF00029DF7047C04618002ADF7047C04618009A
:10AC00002BDF7047C04618002CDF7047C046180085
:10AC10002DDF7047C04618002EDF7047C046180071
:10AC20002FDF7047C046180030DF7047C04618005D
:10AC300031DF7047C046180032DF7047C046180049
:10AC400035DF7047C046180036DF7047C046180031
:10AC500033DF7047C046180034DF7047C046180025
:10AC600037DF7047C046180038DF7047C04618000D
:10AC700039DF7047C04618003ADF7047C0461800F9
:10AC80003BDF7047C04618003CDF7047C0461800E5
:10AC90003DDF7047C04618003EDF7047C0461800D1
:10ACA0003FDF7047C046180041DF7047C0461800BC
:10ACB00042DF7047C046180043DF7047C0461800A7
:10ACC00040DF7047C046180044DF7047C046180098
:10ACD00045DF7047C046180046DF7047C046180081
:10ACE00047DF7047C046180048DF7047C04618006D
:10ACF00049DF7047C04618004ADF7047C046180059
:10AD00004BDF7047C04618004CDF7047C046180044
:10AD10004DDF7047C046180051DF7047C04618002D
:10AD200052DF7047C046180021DF7047C046180048
:10AD300020DF7047C046180022DF7047C046180069
:10AD40004EDF7047C04618004FDF7047C0461800FE
:10AD500050DF7047C046180080B582B000AF786001
:10AD60007B68032213405A425341DBB21800BD46B0
:10AD700002B080BD80B582B000AF78601F497A68AC
:10AD800013009B009B189B00CB18043300221A7001
:10AD90001A497A6813009B009B189B00CB18063356
:10ADA00000221A8015497A6813009B009B189B00AB
:10ADB000CB180C3301221A6010497A6813009B00EB
:10ADC0009B189B00CB18103300221A600B497A683D
:10ADD00013009B009B189B00CB18143300221A60B1
:10ADE00006497A6813009B009B189B00CB18083318
:10ADF00000221A80C046BD4602B080BDE826002071
:10AE000080B582B000AF104B00221A800F4B002299
:10AE10001A700F4B00221A700D4B00225A700C4B07
:10AE200000229A7000237B6006E07B681800FFF721
:10AE3000A1FF7B6801337B607B68092BF5D9C04695
:10AE4000BD4602B080BDC046BC270020BF27002001
:10AE5000E826002090B587B000AFB9607A6019008D
:10AE60000F23FB18021C1A700C23FB180A1C1A80F3
:10AE70001323FB1800221A703D4B5B780A2B70D00D
:10AE80003B4B19783A4B5A7813203B188A181A70A2
:10AE90003B181B78092B05D91322BB18BA18127856
:10AEA0000A3A1A7013203B181A78314913009B0094
:10AEB0009B189B00CB1804330F22BA1812781A7013
:10AEC0003B181A782A4913009B009B189B00CB184B
:10AED00014337A681A6004003B181A782449082051
:10AEE00013009B009B189B00CB181B18BA680433F7
:10AEF00003CA03C320003B181A781D4913009B00A6
:10AF00009B189B00CB1806330C22BA1812881A80A3
:10AF10003B181A78164913009B009B189B00CB180E
:10AF20000833202208218C46BC44624412881A80CF
:10AF300000237B610E4B9B7801225340DBB2002B38
:10AF400008D000F095FA03007B617B69112B01D1D9
:10AF500000237B61064B5B780133DAB2044B5A70F5
:10AF600001E004237B617B691800BD4607B090BDFA
:10AF7000E826002080B582B000AF00237B600A4B3A
:10AF80005B78002B0BD000F073FA03007B607B68CA
:10AF9000002B04D07B68112B01D100237B607B68E0
:10AFA0001800BD4602B080BDE8260020F0B587B08D
:10AFB00002AF7860254B1B7818000F26BA19234979
:10AFC00003009B001B189B00CB1804331B781370E5
:10AFD0001E4B1B7819001D4A0B009B005B189B0041
:10AFE000D3180C331A681A4B1201D358BB60174B95
:10AFF0001B781A0013009B009B189B0008331A0053
:10B00000124BD318181D114B1B7819000F4A0B0057
:10B010009B005B189B00D31814331D680B4B1B78E7
:10B0200019000A4A0B009B005B189B00D3180633DB
:10B030001B881C007A68BB1919780094BC682B0027
:10B04000A047C046BD4605B0F0BDC046E82600207A
:10B05000C027002080B586B000AF786000237B61F8
:10B060006D4B9B78002B00D1D3E06B4B00229A7084
:10B070006A4B1B78082B16D17B68022B03D1674BD8
:10B0800000221A7002E0664B00221A70FFF772FF6E
:10B0900003007B617B69002B00D1B7E07B6918005E
:10B0A000FFF784FFB2E07B68022B03D0032B00D1B3
:10B0B000A8E0AEE0584B1B781A0013009B009B18C9
:10B0C0009B00554A9B1804333B61564B1B88013348
:10B0D0009AB2544B1A803B691B78022B08D1514B12
:10B0E0001B889B023A695288934201DB012200E0EF
:10B0F00000220F23FB181A701A7801210A401A70D7
:10B100003B691B78052B05D1444B1B78072B01D1DC
:10B11000012200E000220E23FB181A701A78012188
:10B120000A401A703B691B78042B05D13B4B1B78F6
:10B13000072B01D1012200E000220D23FB181A7019
:10B140001A7801210A401A703B691B78042B0CD134
:10B15000344B1B889B023A695288934205DB2F4B84
:10B160001B78002B01D1012200E000220C23FB18E8
:10B170001A701A7801210A401A700E23FB181B78E6
:10B18000002B0ED10D23FB181B78002B09D10C23AB
:10B19000FB181B78002B04D10F23FB181B78002B06
:10B1A00024D01E4B00221A707B691800FFF7FEFEA8
:10B1B000194B1B781800FFF7DDFD1A4B00221A808F
:10B1C000154B5B78013BDAB2134B5A70124B1B786C
:10B1D0000133DAB2104B1A700F4B1B78092B05D9CB
:10B1E0000D4B1B780A3BDAB20B4B1A70FFF7C2FE0D
:10B1F00003007B617B69002B0AD07B691800FFF795
:10B20000D5FE05E00D20FFF7D1FE02E0C04600E0CC
:10B21000C046BD4606B080BDE8260020BF270020FE
:10B22000BE270020BC27002080B586B000AFF860A4
:10B23000B9607A603B6003237B618B4B1B78002BEA
:10B240000CD17B68002B06D13B68002B03D1864BC9
:10B2500002221A7002E0844B01221A70824B1B7882
:10B26000062B00D9EDE09A00804BD3181B689F464F
:10B2700080235B051B699BB21A00E6235343180029
:10B2800080235B051B699BB21A00BB6853431900FE
:10B2900080235B051B699BB29B089BB21A00FFF7DA
:10B2A00043FD03007B617B69002B00D0CBE06E4B3C
:10B2B00002221A70C7E0BB681800FFF739FD0300CF
:10B2C0007B617B69002B00D0BFE07B68002B12D133
:10B2D0003B68002B0BD1FB681B78042B03D1624B1E
:10B2E00007221A70B1E0604B05221A70ADE05E4B88
:10B2F00004221A70A9E05C4B03221A70A5E0802397
:10B300005B051B699BB21A00BB685343180080237E
:10B310005B051B699BB21A00E623534319007B6847
:10B320001A00FFF701FD03007B617B69002B00D051
:10B330008DE03B68002B0BD1FB681B78042B03D1FD
:10B34000494B06221A7082E0474B05221A707EE0B4
:10B35000454B04221A707AE080235B051B699BB27F
:10B360001A00BB685A437B689B00D318FA6852885E
:10B370009B18180080235B051B699BB21A00E6230B
:10B3800053431A007B689B00D318FA6852889B18B5
:10B3900019003B681A00FFF7C7FC03007B617B695B
:10B3A000002B56D1FB681B78042B03D12E4B0622B1
:10B3B0001A704EE02C4B05221A704AE080235B0580
:10B3C0001B699BB21A00BB685A437B689B00D31869
:10B3D0001800FB681969FB685B889B089BB21A0020
:10B3E000FFF7A2FC03007B617B69002B33D17B68F4
:10B3F000002B06D13B68002B03D11B4B07221A7090
:10B4000029E0194B06221A7025E080235B051B6991
:10B410009BB21A00E6235A4380235B051B699BB24B
:10B420001900100007F06AFC03001800FFF780FC09
:10B4300003007B617B69002B0FD10B4B07221A7035
:10B440000BE0C0460AE0C04608E0C04606E0C04641
:10B4500004E0C04602E0C04600E0C0467B69180038
:10B46000BD4606B080BDC046BF270020F04A02009E
:10B4700080B58EB000AF0F237B637C4B1B781A0026
:10B4800013009B009B189B00784A9B1804333B6376
:10B490003B6BDB68FB623B6B1B78042B36D0052BC8
:10B4A00000D1A4E0022B00D0D5E03B6B1B69BB6050
:10B4B0006F4B1B889B027B603B6B5B881A007B6831
:10B4C000D31A3B60BA687B68D318BB603B6B9B8820
:10B4D0001A007B68D318FA6AD318FB623B68654A86
:10B4E000934209D8F86A3B689A08BB681900FFF7CD
:10B4F0001BFC03007B63AEE0F86A80235A00BB6844
:10B500001900FFF711FC03007B63A4E03B6B9A6812
:10B510001E23FB18584912018A18083212881A8013
:10B520003B6B9A681C23FB18534912018A180A3294
:10B5300012881A803B6B9B684F4A1B01D318043357
:10B540001B68BB61BA69FB6A9A420AD11E23FB18C9
:10B550001B881C22BA18128853433A6B52889342B4
:10B5600003D03B6B9B68022B14D180235B051B69C6
:10B570009BB21900F86A07F037FB03001A003C4B36
:10B580001B88D3187B617B691800FFF7D1FB030090
:10B590007B6360E080235B051B699BB21900F86A3E
:10B5A00007F022FB03007B6180235B051B699BB2D4
:10B5B0001A007B695343FA6AD31A9B083B617B6983
:10B5C0005A1C80235B051B699BB25A433B6B5B880B
:10B5D0001900FB6ACB18D31A9B08FB60FB683A6919
:10B5E0007969386BFFF720FE03007B6333E080232B
:10B5F0005B051B699BB21900F86A07F0F5FA0300B6
:10B60000BB623B6B9B881A00FB6AD21880235B05E8
:10B610001B699BB21900BB6A4B43D31A9B087B6220
:10B62000BB6A5A1C80235B051B699BB25A433B6B68
:10B630009B881900FB6ACB18396B49885B18D31AB1
:10B640009B083B623B6A7A6AB96A386BFFF7ECFD8C
:10B6500003007B63C0467B6B002B02D1034B0122AE
:10B660009A707B6B1800BD460EB080BDE8260020A6
:10B67000BC270020FF030000C027002080B582B057
:10B6800000AFFFF7BDFB2C4B00221A8080235B0527
:10B690001B699BB21A00E52353431A00274B1A601B
:10B6A000274B00221A8000237B601CE0254B7A6820
:10B6B00012010021D150234A7B681B01D3180833A3
:10B6C00000221A801F4A7B681B01D3180C3300220A
:10B6D0001A801C4A7B681B01D3180A3300221A8087
:10B6E0007B6801337B607B68002BDFD0164B082220
:10B6F0001A7080235B051B699BB21A00E6235A432C
:10B7000080235B051B699BB21900100007F0F6FA55
:10B7100003001800FFF70CFB03003B603B68002BA5
:10B7200005D10A4B01229A70094B01221A703B681D
:10B730001800BD4602B080BDB4270020B827002005
:10B74000BC270020C0270020BF270020E8260020BB
:10B75000BE27002080B584B000AF78603960724B9E
:10B760001B7801225340DBB2002B01D00823D7E025
:10B770007B68002B01D10E23D2E03B68002B01D166
:10B780000E23CDE07B681B68002B01D10E23C7E0A0
:10B790007B689A8880235B051B699BB29A4203D819
:10B7A0007B689B880F2B01D80723B9E07B68DB8877
:10B7B000002B2CD07B68DB881A007B689B88534366
:10B7C0001A005A4B1B68D21880235B051B699BB279
:10B7D0001900E6234B439A4219D87B68DB881A008C
:10B7E0007B689B885A4380235B051B699BB29A4206
:10B7F0000FDD80235B051B699AB27B689B8819006B
:10B80000100007F077FA0B009BB2002B01D0072342
:10B8100086E07B689B88032213409BB2002B01D0FB
:10B8200007237DE0424B1B88012B01D1042377E0E5
:10B830003F4B1B881A003B681A603C4B1A683B68F8
:10B840005A603B4B1B8818003B685A683949030112
:10B85000CB1804331A60364B1B881A007B681968B2
:10B86000344B1201D150324B1B8818007B689988E9
:10B87000304A0301D31808330A1C1A802C4B1B884A
:10B8800018007B68D9882B4A0301D3180A330A1C95
:10B890001A800E23FB1800221A807B689B881A00EE
:10B8A0007B68DB885343BB600E217B181A887B18AA
:10B8B00001321A8080235B051B699BB21A00BB68AA
:10B8C000934208D980235B051B699BB21A00BB68B1
:10B8D0009B1ABB6001E00023BB6080235B051B69F2
:10B8E0009BB21A00114B1B68D218104B1A608023B0
:10B8F0005B051B699BB21A00BB689342D4D20C4B08
:10B900001B880C4A1B01D3180C330E22BA1812885C
:10B910001A80074B1B8801339AB2054B1A8000230B
:10B920001800BD4604B080BDBE270020B827002007
:10B93000B4270020C0270020B0B586B000AFF86063
:10B940007A600A23FB180A1C1A802F4B1B780122ED
:10B950005340DBB2002B01D0082350E0FB68002BE2
:10B9600001D10E234BE07B68002B01D10E2346E072
:10B97000FB681B68002B06D1FB681A68234B120179
:10B98000D358002B01D1072339E010243B19FA6862
:10B9900003CA03C33B195A680A23FB181988FB68BA
:10B9A0001B681A481B01C31808331B884B43D21865
:10B9B0003B195A603B195A683B191B6813491B0114
:10B9C000CB180433196825003B191B680F481B016D
:10B9D000C3180A331B881C007B191B680B481B010A
:10B9E000C31808331B886343CB189A4201D307233B
:10B9F00005E07B681022BA1803CA03C300231800AD
:10BA0000BD4606B0B0BDC046BE270020C0270020FE
:10BA100090B587B002AFF860B9601900BB1D1A80FD
:10BA20003B1D0A1C1A804B4B1B7801225340DBB292
:10BA3000002B01D0082388E0BB68002B01D10E2326
:10BA400083E0FB68002B01D10E237EE0FB681B68BE
:10BA5000002B06D1FB681A683F4B1201D358002B0C
:10BA600001D1072371E0FB685A68FB681B683A49FB
:10BA70001B01CB1804331968FB681B6836481B018F
:10BA8000C3180A331B881C00FB681B6832481B0163
:10BA9000C31808331B886343CB189A4201D307238A
:10BAA00053E0BB1D1B88002B0AD0FB681B682A4A89
:10BAB0001B01D31808331B88BA1D12889A4201D97A
:10BAC000072342E0BB1D1A883B1D1B88D218FB6868
:10BAD0001B6821491B01CB1808331B889A4201DDE2
