:020000023000CC
:10A000000040002031B603006DB603006FB60300B8
:10A010000000000000000000000000000000000040
:10A0200000000000000000000000000071B6030006
:10A03000000000000000000073B6030075B60300C6
:10A0400077B6030077B60300B9C5030077B60300FF
:10A0500077B603000000000077B6030077B6030070
:10A0600077B6030077B60300ADB7030077B60300F9
:10A0700077B6030077B6030077B6030077B6030020
:10A0800077B6030029AC030077B6030077B6030068
:10A09000CDAC030077B6030015AB030077B6030021
:10A0A00077B6030077B60300000000000000000050
:10A0B00000000000000000000000000000000000A0
:10A0C00010B5064C2378002B07D1054B002B02D08E
:10A0D000044800E000BF0123237010BD24250020A8
:10A0E000000000009CCA0300044B10B5002B03D0F5
:10A0F0000349044800E000BF10BDC0460000000056
:10A10000282500209CCA0300164B002B00D1144BBD
:10A110009D46402292029A1A924600218B460F4693
:10A120001348144A121A02F02CFC0F4B002B00D0DB
:10A1300098470E4B002B00D09847002000210400C8
:10A140000D000D48002802D00C4800E000BF02F0CE
:10A15000EBFB2000290001F0A7F902F0CFFBC0467D
:10A160000000080000400020000000000000000087
:10A1700024250020802C00200000000000000000AA
:10A1800072DF704779DF70477DDF704765DF7047AA
:10A19000F0B500240600250087B00C9F00933B78A3
:10A1A0000391029201933388AB420ADC002084427F
:10A1B0003FD03B78019A013B9B1A0199009A535476
:10A1C00037E07368A9005918042205A802F0D0FBF3
:10A1D00004AB0022D91C05A8FFF7D8FF002828D11E
:10A1E00004ABDB78029A934220D1614261413B7813
:10A1F00049009A1852181F2A1ADC002C06D19A1C02
:10A200003A700133009A0399DBB2D154009B3A783B
:10A2100005A89A1804ABDC1C2100FFF7B7FF002843
:10A2200007D1227801243B789B183B700135BAE7AF
:10A230000C2007B0F0BDF7B5089E1700009602226B
:10A2400004001D00FFF7A4FF002806D100962B0094
:10A25000102239002000FFF79BFFFEBD0023F0B560
:10A260001370037887B006000D001400002B26D071
:10A2700043780C201D2B4BD80E2702ABFF181D2353
:10A28000881C39003B80FFF77FFF002840D13378DE
:10A29000022B03D13B8809221D2B08D97378002B90
:10A2A00003D09BB208221D2B01D908223B88DBB2C8
:10A2B000591C29706A70227802329B182370B37877
:10A2C000002B1ED023780C201B2B21D80E2702AB8D
:10A2D000FF183800FFF756FF002819D123785A1CC1
:10A2E00022700322EA5423785A1C22701922EA545D
:10A2F00023783A88EB181A70120A5A7023780233BE
:10A300002370B388002B1FD0B268002A02D1072027
:10A3100007B0F0BD2278911CC9181F2901DD0C205F
:10A32000F6E7511C01332170AB5423785A1C22707C
:10A330000122EA542078B2882818B16802F018FB8C
:10A34000B38822789B182370F268002A11D02378F2
:10A350001C2BE4D8591C127821700221E95423786F
:10A3600052B2591C21700A21E9542378591C2170DA
:10A37000EA54338A002B50D1338B002B09D03000A4
:10A3800000942B00072203211830FFF754FF002808
:10A39000BED1338C002B09D0300000942B00152245
:10A3A00014212030FFF747FF0028B1D1B26A002AFC
:10A3B0003ED1F76A002F28D03B792278981C911C57
:10A3C000C0B209181F29AADC511C03332170AB54F9
:10A3D00023785A1C2270FF22EA5423783A88EB181B
:10A3E0001A70120A5A7020780230C0B22070BA88EF
:10A3F000002A0AD0B968002900D188E7281802F09D
:10A40000B7FABB8822789B18237033003433039348
:10A410001B78002B4CD100207AE7300000942B00F1
:10A42000062202211030FFF706FF0028A4D06FE7B4
:10A430002078831D1F2B00D971E71188052900D8CA
:10A4400065E7374FCB199BB20293364B9C46029B74
:10A45000634500D85BE75388052B00D857E7DF1921
:10A46000BFB2674500D852E72F4FB94204D0BB4274
:10A4700002D0994200D94AE7431C237005232B548C
:10A480002378591C21701221E95423781188EB1884
:10A490001970090A597023780233DBB2237052888D
:10A4A000EB181A70120A5A7023780233237080E76F
:10A4B000336B002B00D12AE700230293039B029AFF
:10A4C0001B789342A7D90C27029B22785F43336BFA
:10A4D000511CDF193B7921700333AB5423785A1C8C
:10A4E00022701622EA5423783A88EB181A70120A5E
:10A4F0005A7020780230C0B22070BA88002A0AD080
:10A50000B968002900D102E7281802F031FABB88A7
:10A5100022789B182370029B0133DBB2CDE7C04643
:10A520007FF3FFFF7DF30000FFFF0000F0B593B065
:10A530006B466A469E1D0023D71D04000D00337034
:10A540003B70984212D08388002B02D1072013B0B1
:10A55000F0BD8368002BF9D01B785B07F6D532007D
:10A5600002A9FFF77BFE0028F1D102AC002D0AD032
:10A57000AB88002BEAD13A000AA92800FFF76EFE4B
:10A580000028E4D10AAD3B7831782A002000FFF79B
:10A59000F7FDDCE775DF704776DF70477ADF7047DD
:10A5A0007BDF704713B5164C164B2088984210D0AD
:10A5B000A378227C0133DBB2A3709A420AD3210034
:10A5C0002031FFF7E7FF002803D0E369002B00D01C
:10A5D000984713BD0023A370237D002B08D03B2197
:10A5E000FFF7DAFF002803D0E369002B00D098477B
:10A5F000A369002BEDD0002201A80270E8E7C04655
:10A6000040250020FFFF000013B5174C638D228CFE
:10A610009A4209D8628C9A4206D3A369002B20D1B2
:10A6200000233034237013BD230030331B78002BFC
:10A6300006D0A369002BF3D0002201A802700CE021
:10A64000A378002B0BD1A1680022606B00F09CFD69
:10A650000028E5D0E369002BE2D09847E0E7E16805
:10A66000F2E701A80122E9E740250020020070B5C9
:10A67000144C231D62CA62C362CA62C312682500F9
:10A680001A6023000022016830331A70203591428D
:10A6900013D00832280002F06BF92800FFF77EFF84
:10A6A000002809D10123200000215B423430064AF2
:10A6B0002380A17000F042FD70BD2800FFF770FFFD
:10A6C000EEE7C04640250020A5A5030010B5024BCB
:10A6D000586B00F0A1FD10BD40250020038810B587
:10A6E000112B26D002D8102B11D010BD122B30D038
:10A6F000502BFAD11A4CC188628A9142F5D1C38B92
:10A70000022BF2D10130C37FDB070FD417E0144CCA
:10A710008388010020000E3128300822238002F0B7
:10A7200027F90023A370638A002BDED1FFF76CFFAB
:10A73000DBE701230A4C5B4223800023A370606B9C
:10A7400000F06AFD0028D0D0E369002BCDD09847F7
:10A75000CBE7811D02480822283002F009F9E5E71D
:10A760004025002073B5154C010025002035082236
:10A77000280002F0FDF82800FFF710FF051E09D1A0
:10A78000638D228C9A4207D8628C9A4204D3A369C3
:10A79000002B0DD1280076BD230021000126303387
:10A7A000203120881E70FFF7F5FEA6700500F1E746
:10A7B000012201A802709847ECE7C046402500201E
:10A7C0000B7803704B7843700220704770B504001B
:10A7D00008000D0002F0DDF86560208070BD00000B
:10A7E000A0DF7047A2DF7047F0B591B001900F0075
:10A7F00015001C00002904D11B4A6D21380001F00E
:10A8000055F8002D04D1184A6E21280001F04EF8A9
:10A8100009AE1C220021300002F0B3F8012202A987
:10A820008A710A00022312200199337091802278E4
:10A8300002A90A7062788B7002AB4A70C0180622B7
:10A84000002102F09EF803AB04AC049302AB6360FA
:10A85000064B220018883100169B2581A5812761AF
:10A86000FFF7C0FF11B0F0BDBCC903007825002080
:10A8700070B504000120544D86B0544B03A92A0042
:10A8800088700B80FFF7ACFF061E51D12288002A8A
:10A8900051D12289002A0AD02B000A3300932300C9
:10A8A000E1683C334A48FFF79FFF00284DD1228AD8
:10A8B000002A0AD02B0012330093230061693C3335
:10A8C0004448FFF791FF00283FD1228B002A0AD08D
:10A8D0002B001A3300932300E1693C333E48FFF715
:10A8E00083FF002831D1228C002A0AD02B0022338A
:10A8F00000932300616A3C333848FFF775FF002856
:10A9000023D1228D002A0AD02B002A330093230062
:10A91000E16A3C333248FFF767FF002815D1236B0B
:10A92000002B14D1616B002928D1A36B002B32D1ED
:10A93000300006B070BDAB1C0093230061683C334F
:10A940002848FFF751FF0028A3D00600F0E7196858
:10A950005A68049104A90A719B6823481A0A4B712A
:10A960001B0CCB712B0032338A7100932300082219
:10A970003C33FFF739FF0028D4D0E6E72B003A3309
:10A980000A790093230009683C331848FFF72CFF2D
:10A990000028CAD0D9E71A7804A90A705A88423523
:10A9A0004A70120A8A709A881148CA70120A0A718B
:10A9B000DB8807224B711B0A8B71230000953C3307
:10A9C000FFF712FFC1E7C046782500200A180000F3
:10A9D000242A0000252A0000272A0000262A000039
:10A9E000282A0000292A0000232A00002A2A000021
:10A9F000502A000026DF704751DF704710DF704794
:10AA000011DF704761DF704710B50800110000F0DA
:10AA10004EFF10BDF7B51F4D2E78F6B2002E37D081
:10AA20006B685C425C41AA68E4B2002A2AD001A8A3
:10AA3000FFF7E2FF052829D0002817D0164A692120
:10AA400000F034FF002CF2D12F69AB8901A9380046
:10AA50000B80FFF7D7FF052810D000280AD00E4A38
:10AA6000802100F023FF002CEED1E0E70198AB68D5
:10AA70009847E7E738006B689847F4E7002C07D160
:10AA80003400D4E7002B03D03400DDE7002CFBD0EA
:10AA9000F7BDC046C4250020F1C9030070B505000C
:10AAA0000720002910D08C070ED1084C2800216106
:10AAB0000749A2816361FFF7A1FF002804D10123A8
:10AAC00016302370FFF796FF70BDC046C4250020E6
:10AAD00009AA030010B5FFF793FF03005A1E934124
:10AAE000014ADBB2137010BDC42500200E230028DC
:10AAF00002D0024B5860002318007047C425002084
:10AB00000E23002802D0024B9860002318007047E3
:10AB1000C4250020084B10B55B69002B08D098476E
:10AB2000002804D09921054A490000F0BFFE10BD5D
:10AB3000FFF770FFFBE7C046C4250020F1C9030002
:10AB400030B544788378621C934200D100220578A6
:10AB50000023954204D018335C4343680A601B19F4
:10AB6000180030BD144B02205B68DB05DB0D1CD0E8
:10AB7000103B5AB2DBB21900013001408140002A7B
:10AB800014DA0F221340083B9B080C4A9B009B18C9
:10AB90005B68CB409B090340DBB20020012B04D053
:10ABA000033B1800431E9841013070479208C032A1
:10ABB000034B9200D358ECE700ED00E018ED00E005
:10ABC00000E100E02F23C046C046C046C046C04654
:10ABD000C046C046C046C046C046C046C046C04645
:10ABE000C046013B002BEED1704780220B4B9202F6
:10ABF00070B5DA678023D2220125094C5B029200EE
:10AC0000A350403AA3506560FFF7DCFFA560002524
:10AC1000044C2560FFF7D6FF257170BD04E100E00C
:10AC200000100140DC250020F8B50025214B224C06
:10AC30005D649D64DD641D655D609D60A7687B1C2F
:10AC400031D01E4B1E4AD6582368F61A3602360AF1
:10AC500024235F43E368D9194B68B34212D82269B1
:10AC6000F61AED180F6A8B69C969002A1CD0180002
:10AC70009047002804D06421124AFF3100F016FEEC
:10AC80007B1CE5D1227D637D934204D10133DBB28D
:10AC9000022B0CD023758022237D52039B00E418E5
:10ACA000094BA5615A60F8BD08009847E8E7002302
:10ACB000F0E7C046FC100140DC2500200405000040
:10ACC000001001402ACA0300FCE100E0F0B5C54BCA
:10ACD00089B01A68197D05925A7D914200D197E09A
:10ACE0000132D2B2022A00D190E05A755A7D920008
:10ACF0009A18926901920199059A52181202120A41
:10AD00001A60012202929A680133DB7F0792039353
:10AD10000493049BB34A013BDBB20493536A06934A
:10AD2000049BFF2B00D076E09368D2680092029AD1
:10AD3000002A00D0E8E0079AD31A5A1E9341DBB2EA
:10AD4000029301235B429C46A64B9A681B68110044
:10AD50000593002304920193039B013BDBB2039311
:10AD6000FF2B00D0D8E0019B9E4D002B00D0A960A6
:10AD7000AA68049B934202D1029B002B44D0531C2F
:10AD800000D159E124235343EA68974CD3185B68F8
:10AD9000964A0293A6582B6803920093F31A1B025B
:10ADA0001B0A033301932B79002B12D18023C13A64
:10ADB0005B02FF3AA350403AA350C02180220127F2
:10ADC0008B4B920249005A501A602760FFF7FAFE37
:10ADD0002F71029A019B9A4200D21A00009BD2184E
:10ADE000A8231202120ADB00E250039B921BE358D5
:10ADF00012029B1B1B021B0A0333120A934203D944
:10AE000080227C4B92025A6009B0F0BD00226CE7B0
:10AE10000022019276E7049BDD00069B5D192B78EA
:10AE200000936B78009A934200D172E71822009B3E
:10AE30005A436B689A18009B0133DBB20093AB78DE
:10AE400000998B4201D100230093664B1178DE6894
:10AE50009B68022905D00329E3D1002001210200CB
:10AE60001EE0516824224A43B2180692127D002A3D
:10AE7000D7D01A001C0007E024275743F719914246
:10AE800000D1DCE014003A6A501CF5D10023069A88
:10AE90001375C6E7242043430800F3181A751B6A8C
:10AEA0005C1CF7D10028BCD04E4A9360B9E7320051
:10AEB0005A43009D019FAA185568BD4207D9002931
:10AEC00001D048498B60019BED1A55603CE7019920
:10AED0004019491B1569019154601475176A002DBA
:10AEE00008D00599D56009180902090A91606146E0
:10AEF0009C4611623B0002995A1CD8D1002900D10E
:10AF000022E7384A93601FE701220021524294460B
:10AF1000080024260C00EFE7039BDA00069B9A1832
:10AF20006346013324D1002655781378AB4200D113
:10AF300012E7182058435468013320189478DBB284
:10AF400013709C4200D116700378012BEDD1446838
:10AF500023336343009FFB181F7D002FE5D18568D5
:10AF60009D60C568DD60056940691D61D86107E0C5
:10AF700060462423434300986446C318186A8446F5
:10AF80009868059D1C4F451B2D022D0ADE68BD42A9
:10AF90001BD8AD195D60002001269860D86001388B
:10AFA0001E7518624B1C0ED024256543009B009F24
:10AFB0005D1924234B43FB1868685F68B84238D892
:10AFC000381A58602962019631E0059D281A00025E
:10AFD000000AB04202D2361A5E60DCE700205860F8
:10AFE000D9E7C046DC250020001001400405000020
:10AFF00000E100E0FCE100E0FEFF7F00366AC01BDC
:10B000000793771C0BD0330024265E43009FBE19A4
:10B0100077688742F2D33F1A77601E00079B68600B
:10B020002420434300982E62C3181C620C002100A8
:10B0300076E707910B00E7E7FFF7D7FDE4E6A142CB
:10B0400009D124225343F3181B6A0A4A936001333F
:10B0500001D1FFF7CAFD24214C433B6A34197A68B9
:10B060002362581C00D111E74B43F61873689A18F5
:10B0700072600BE7DC250020F7B5032501900F0077
:10B0800016001C001D404DD1002B4BD0FFF7ADFD2D
:10B09000254B089ADC601A611A00283217702422A6
:10B0A00057432A00E719BC4238D103215A1CD177F3
:10B0B0002100182018310F00002270435C6261608B
:10B0C00022706270A67008340918A742F7D10121D6
:10B0D0008024C526FF20494299605A751A7582312D
:10B0E000124A6403FF315450B6009159814308005D
:10B0F000C02101439151A121146001980C4CC90059
:10B100006050043E91590B480840C0210902014398
:10B110009151094AA2581A602800FEBD227022757A
:10B120002434C0E70725F7E7DC25002000E100E034
:10B1300000100140FF00FFFF04050000114BF0B5B7
:10B14000DC6806000820002C18D00138002A15D031
:10B15000002E13D0002528331F78AF4201DC0420D5
:10B160000CE0200024342300243B1B78002B06D164
:10B17000012441700470826118003560F0BD013512
:10B18000EBE7C046DC250020F0B51F4C85B0E36836
:10B1900006000D0001920820002B32D02200283238
:10B1A00012780138B2422CD904292AD924227243B8
:10B1B0009B181A780130012A23D15B780F00012BEC
:10B1C00000D00027FFF7CEFC646AC000241803A952
:10B1D0002000FFF7B5FC03000420002B11D0012252
:10B1E0000A491A700A4A5E608A5800209A60019AD9
:10B1F000DD605A6180221F61039B52036370054B1F
:10B200005A6005B0F0BDC046DC25002000100140AA
:10B2100004050000FCE100E073B5154E0500F2687E
:10B220000823002A21D033002833197807238142CC
:10B230001BD91D3343439A5C0823012A15D1FFF71C
:10B2400091FC746AC000241801A92000FFF778FC63
:10B250000423002809D08022023B0370019B456033
:10B260006370044B52035A600023180076BDC04639
:10B27000DC250020FCE100E013B50F4C0823E26858
:10B28000002A16D0FFF76EFC646AC000241801A9DA
:10B290002000FFF755FC042300280AD08022013B40
:10B2A0000370043B4360019B52036370034B5A607D
:10B2B0000023180016BDC046DC250020FCE100E09C
:10B2C000024A034BD358036000207047001001402E
:10B2D00004050000401A0002000A106000207047B8
:10B2E00018DF70472DDF704713DF7047B024054B20
:10B2F000640220001D68FFF7F7FF236883F30888C6
:10B30000A847FEE704600100F0B58DB000F014FA24
:10B3100000F044FA5E4C01902378002B0DD1A2225C
:10B32000A021D200C9058A58520006D5E722D200D2
:10B330008B5001F069F9012323706378012B15D13B
:10B3400000F066FC002834D00123637000F066FC36
:10B350000500A01C2A78A91C01F00AFB2B78E21C2E
:10B36000013B2800D37700F05FFC22E000F04EFEA6
:10B37000051E1BD002786178012A12D943884548FE
:10B380000340454883420CD100290AD1022363704F
:10B39000A01CA91C01F0ECFA2B78E21C013BD3772E
:10B3A00001E00229F4D0280000F040FE6378022B6F
:10B3B000C6D1A71C0334E67FFF2E25D0002303ADA2
:10B3C0002B70013602AB32003900981D01F0D0FA23
:10B3D00038006E7000F006FF002815D1280001F03B
:10B3E00023FAFF232800E37701F0B4F900280BD0FB
:10B3F0002B78002B08D16D7802AB2A00991D3800FC
:10B40000013D01F0B5FAE577214CE71CFD7FA61C54
:10B41000FF2D12D06378022B29D100F02FFE051EDC
:10B420000BD0FA7F02300132310001F0A1FAFB7F2C
:10B43000280001332B7000F031FEFF230334E37743
:10B44000164B5A6C002A04D000225A64144B013265
:10B450001A60019B002B00D158E780212023114A5C
:10B46000C905885803438B50FFF73CFFFEE7012BCB
:10B47000E3D127002000013524372A00310026308F
:10B4800001F076FA631D3800DD7700F0D3FBD4E7D6
:10B4900008260020FFFEFFFFFFFE0000FC9000409A
:10B4A000006000401C05000073B54D48FFF718FF11
:10B4B000E8208002FFF718FF80228620494BD20542
:10B4C000D1581D0001401000822909D0D3585B06D5
:10B4D00006D4B0235B021B68013301D0FFF706FFDF
:10B4E00043595B060BD5B1233F4C042250343F49EE
:10B4F0002000237101F03CFA200000F005FE8022BC
:10B500006021D205535900208B435351A023384A60
:10B51000DB055F399950A1228021D200090399509F
:10B520000090344B06220421FFF7A6FD002803D02B
:10B53000314A7B2100F0BAF900F0BAF900F042F983
:10B54000002000F0E7F8A8232C492D4ADB00CA5060
:10B550002C4B2D4A8024CA50A0230122A2252B481F
:10B56000DB051A502A48A4011C502A4E2A4CED0033
:10B570006651C046C046C046284E22606651C0464D
:10B58000C046C0460A60264920245A50A121C9005D
:10B590005C50E324E4001A5140241C50214C1A5101
:10B5A00080241C50E524E4001A518024E4005C50FF
:10B5B0001D4C1A518024A4031C501C481A50802092
:10B5C00080055850E720C0001A508022D2015A50FE
:10B5D000EF220420D20098505C50FFF795FEC04641
:10B5E000042000201C05000008260020A4000010F4
:10B5F0004C070000602600205BCA0300009000405A
:10B6000048E801004405000090D003003407000022
:10B610000C050000031F020000600040030D030042
:10B62000140700001C070000540700007407000006
:10B630000848026803210A4302600749074A084B89
:10B640009B1A03DD043BC858D050FBDC05488047FB
:10B650000548004724050040A8CA03000020002038
:10B660002425002089B6030009A10300FEE7FEE7B8
:10B67000FEE7FEE7FEE7FEE7014B024A1A6070476D
:10B68000142000200024F40070B51B4C2368DBB2AA
:10B69000012B03D119480268130700D070BD184967
:10B6A000F0230A68E02615001D40324221D1154AD8
:10B6B00012681A420DD1144B144A1A608022144B9E
:10B6C00012021A602368DBB2012BE7D103681B0763
:10B6D000E4D1F0220B681340402BDFD1094B1B68EB
:10B6E0001342DBD18022C1230121D205DB00D150DE
:10B6F000D4E7302DDBD0ECE7E00F00F0E40F00F0F2
:10B70000E80F00F0EC0F00F004050040DFFF07C079
:10B71000186C0040A0220C21054BD20510B5D15069
:10B72000C021D45889022143D150024B187010BD5A
:10B73000440700001029002010B500F061F8164CF5
:10B740006368984211D000F05BF8A022A223217A0E
:10B75000D205DB006060D358002907D19B0304D4D5
:10B760000123237200F04CF8E06010BD9B03FCD570
:10B770000023237200F044F8E368C01A2C23FF333F
:10B78000984206D800F03CF8E368C01A012301286B
:10B7900000D802232370E8E7102900200022024B82
:10B7A00018781A707047C04610290020034A1368A1
:10B7B000013313600022024B5A6470472029002095
:10B7C000FCA00040A221012204200B4BC900DA603A
:10B7D0005850FA2030318000585080218020890054
:10B7E0005A500531FF314002585080200349C000B3
:10B7F00008601A607047C04600A0004000E100E009
:10B80000014B18687047C0462029002070DF704740
:10B8100071DF704773DF704778DF70477ADF7047FA
:10B820007CDF70477FDF704760DF704763DF704702
:10B83000FEE710B50348FFF7EDFF002800D0FEE754
:10B8400010BDC0462429002010B5040000F0B0FC53
:10B85000200000F04BFE10BD10B5040000F0F2F81F
:10B860002000FEF73BFF20881038092809D801F096
:10B870003BF805160809080808080813A288094BB0
:10B880001A8010BD084A074B143218880021FFF7B0
:10B89000C9FF0028F5D0FEE7A379002BF1D1FFF70F
:10B8A000C8FFEEE71820002024290020FEE7FEE76D
:10B8B0000023F0B5574999B01C3150221800FFF70A
:10B8C000EDF8061E00D0FEE7012704AD2B7808AC8A
:10B8D0003B4328002B70FFF7A7FF2000FFF798FFDE
:10B8E00063782100DB1930006370FFF78FFF4A484F
:10B8F000FFF7FCF8002800D0FEE74848FFF700F902
:10B90000002800D0FEE7112310222B7044492800A4
:10B91000FFF786FF002800D0FEE7FFF77DFF002835
:10B9200000D0FEE709AB18803E4B20000893C823E7
:10B930005B00E380FFF772FF0190002800D0FEE774
:10B9400002ABDE1D0623042237492800337001F0C4
:10B950000FF838220199200001F013F80223019911
:10B9600020002370A770A780A66027826561FEF77C
:10B97000DDFD011E00D0FEE71422264801F001F88B
:10B98000C822244B52001A82274B1022191D28006E
:10B9900000F0EEFF28003100FFF748FF051E00D041
:10B9A000FEE7307800F0AEF840222900200000F0D9
:10B9B000E8FF1E492000FEF709FF11232000A3879E
:10B9C000FEF756FF011E00D0FEE71822200000F00F
:10B9D000D8FFA0239B026360A36003232373144B4F
:10B9E00020002774A361FEF741FE002800D0FEE787
:10B9F0001E22C021074B9A82DA8A11400D4A0A435F
:10BA0000DA8210221A76FFF714FF00F0DBFB19B080
:10BA1000F0BDC0462429002059B8030049B80300EE
:10BA20007ACA03001000200066CA03008BCA030014
:10BA300031B803000D070000A0DF7047A2DF704798
:10BA4000A6DF7047038870B50500112B07D0502B77
:10BA500009D0102B02D18288284B1A8070BD012298
:10BA6000264B5242F9E7264CC2882388861D9A420B
:10BA70000DD1237A002B0AD1200029000E30328B01
:10BA8000203100F075FF338B237301232372EA8882
:10BA9000238F9A42E2D16023B27E184950B21340FC
:10BAA00000280EDA8B701F23290020001A40013273
:10BAB000226421314430132A0EDD132200F058FF96
:10BAC000CCE78A789A42C9D1FF2320008B702900E5
:10BAD000226C5730133A213100F04AFF237A002BB1
:10BAE000BCD120002100256C0E3044312A0000F02A
:10BAF0003FFF012325732372B0E7C0461C200020BE
:10BB000090290020FF23F0B587B002AA537004A942
:10BB1000384B01908870023201200B80FFF78CFFB8
:10BB2000051E64D103AE01000322300000F029FF9E
:10BB300006210220304B314C3380B37805AF8B4364
:10BB40000343B3702E4B22003B800123019D2385CC
:10BB5000BD7002AD0135256302AD68882032211D1C
:10BB6000284BA6612762FFF769FF051E3FD1010040
:10BB70000322300000F005FF234BA5613B80012329
:10BB8000019DA387BD7002AD013565641D4D1F4A3F
:10BB900038352B0025004835290002AD68886763D9
:10BBA000FFF74CFF051E22D101000322300000F0F8
:10BBB000E8FE06210220B3780F4A8B430343B3709B
:10BBC00081239B003B80012321003280019AA387BF
:10BBD000BA7002AA01320B4B626402AA5088643325
:10BBE00064310A4AA6676763FFF728FF050028004B
:10BBF00007B0F0BD01020000111100001C20002060
:10BC000002020000902900200302000050200020C2
:10BC1000014B187A7047C0469029002001480C302B
:10BC20007047C046902900200022014B1A727047CD
:10BC300090290020F0B58BB004AA941D3C4A0378EB
:10BC400012880090019201993A4A238091426CD067
:10BC5000142B01D9142323800A2004AB06220021CF
:10BC6000C01800F08EFE0123334D06AEB3702B8852
:10BC700031003380009B01989F1CF760B460FFF790
:10BC8000DFFE009B14221B78132B00D85A1CE96E90
:10BC9000013B029148016021084041390B4080215D
:10BCA000034349420B43254903900B702448390054
:10BCB000228000F05DFE0A23012704A81B1806223B
:10BCC00000211800643500F05CFE2B8806AE33803E
:10BCD0001A4B31000198F360B770B460FFF7B0FE03
:10BCE000009B1A78132A1CD9144B0399123A197025
:10BCF000009992B215311248228000F039FE0A23D1
:10BD000004A81B1800211800062200F03AFE2B8818
:10BD100031003380094B0198B770F360B460FFF7CE
:10BD20008FFE029B044A0133D3660BB0F0BDC046C0
:10BD30001C200020FFFF000090290020002A002086
:10BD4000012A00200A4A030913400A4A0001104050
:10BD50001843094A83081340084A800010400343EF
:10BD6000074A58081040074A5B00134018437047C1
:10BD70000F0F0F0FF0F0F0F033333333CCCCCCCCCB
:10BD800055555555AAAAAAAA444B45491869F0B574
:10BD90000A0000280DD000201861424B18780028B6
:10BDA00067D0012805D18024E4000C59002C01D172
:10BDB0008860F0BDA921C90050582C215F683A4C19
:10BDC0007943611848623948394E1558781C8D629C
:10BDD000304004D5042101384942084301309968B4
:10BDE000884202D101239360E3E72C214F43E419F9
:10BDF0006178DF684907890F0024B94204D11C69C2
:10BE0000641B67427C41E4B2D9601D615969294DC8
:10BE1000002C0FD051518021082489005058A04394
:10BE200050500420545820435050002119700123D1
:10BE30001361BEE71C001C3458609869A1420BD006
:10BE4000996C814208D00131314004D50424013974
:10BE500064422143013199649C6CA04206D02C219C
:10BE600061431548091851515961D4E719001C3133
:10BE7000F9E72C225868042442430B4812180D4855
:10BE80000A50802292008858A043885008208C587D
:10BE90002043885001221A700A618AE7FC10004092
:10BEA00000100040142A0020102B00200C04000079
:10BEB0000300008004050000602A0020F8B5012579
:10BEC000022200272B4C2C4B2C4EE5502C4B2D489E
:10BED0001A602D4BE750043BE7500833E5503379A7
:10BEE0001843FFF72FFF294B294AE0500433E25053
:10BEF000737830781B020343B07800040343F07872
:10BF000000061843FFF71EFF224B234AE05004337C
:10BF1000E250224B224AE7500433E550214BE250D5
:10BF2000214A0433E2500222204BE250204B214AA6
:10BF3000E250214A043BE250C12308229B00E25018
:10BF4000053BFF3BE550E15892180A43E2500422BA
:10BF5000E1580A43E250E2582A43E2502C22174BA0
:10BF60001D705B685343164A9B18164AA3506560C0
:10BF7000F8BDC04600100040FC0F0000A2200020C9
:10BF800000E100E000C2C3C40C050000240500006D
:10BF900013E363A31C050000434343002C0500008A
:10BFA0000600030014050000200004013405000011
:10BFB0003C050000FFFF000021100100142A0020B2
:10BFC000102B0020040500000222084B0821DA672C
:10BFD000C222074B920099500022F931FF315A508A
:10BFE0000121196103495A507047C04604E100E03D
:10BFF00000100040FC0F0000034B58689B68C01AFB
:10C00000431E9841C0B27047142A002010B5FFF7B4
:10C01000F3FF002805D0034B98682C235843024BAC
:10C02000C01810BD142A0020102B0020064A074912
:10C03000936801330B4004D50421013B49420B4373
:10C04000013393607047C046142A0020030000802B
:10C05000084B9A69501C084A104004D50422013844
:10C060005242104301309B6CC01A431E9841C0B22B
:10C070007047C046142A00200300008010B5FFF767
:10C08000E7FF002805D0034B98692C235843024B47
:10C09000C01810BD142A0020602A0020064A074953
:10C0A000936901330B4004D50421013B49420B4302
:10C0B000013393617047C046142A002003000080BA
:10C0C00001280AD0002802D002280BD07047A223F2
:10C0D0000221074ADB00D150F8E7A223044ADB0023
:10C0E0000021F8E7A223024ADB000121F3E7C04662
:10C0F000001000407D2803D8A123024ADB00D05065
:10C100007047C0460010004010B5010005220248EB
:10C1100000F02EFC10BDC046A22000204EDF70476C
:10C1200050DF7047002310B51C4C2370042816D82C
:10C1300000F0DAFB031A17242A00C1228021184BD1
:10C14000920049029950A822C821D2009950802219
:10C15000144B52001A60FFF7B1FE00232370200039
:10C1600010BDFFF711FEF8E70F4A536C012BF6D113
:10C1700000215164FA2292006260EFE7FFF724FF8A
:10C180000A4B63600323E9E7A822FA200449D2009E
:10C190008B5880001B188B50E1E7C046C02B002055
:10C1A0000080004000E100E0FC800040A82000206A
:10C1B000043810B5012802D80148FFF7B1FF10BDBF
:10C1C000A820002010B50348FFF7A8FF0248FFF79A
:10C1D000A7FF10BD25C10300A820002021DF704764
:10C1E00020DF7047F7B5431C0193DB7F0400023B5F
:10C1F000DBB2FC2B46D80378FF2B09D0B24A137868
:10C20000032B00D14CE10020042B00D153E1FEBDF3
:10C210004378FE2BF2D18578102D15D1002101270E
:10C22000FA3B03711C3BC37170334372C170477199
:10C230008171017281720C220B3000F0A2FB162377
:10C24000E575019AD37741E0142D21D19F4B002150
:10C2500003309C46E61D9E4F02E0725C0131FA54A9
:10C26000019BDB7F063B8B420CD9437802781B0293
:10C270001343C27885789B0212025B182A439B18ED
:10C280006345EADD019B0020DB7FFF2BBFD0B5E7D4
:10C29000152D1DD100228D4D8D4EC11C07344B78BC
:10C2A00008781B020343C8788F789B0200029B1812
:10C2B00038431B18AB4204DCF35CA3540132192A47
:10C2C000EDD1019BDB7F9A18019BDA7701209EE775
:10C2D0001C2D17D10022C11C7E4D073404E00378C9
:10C2E000A3540132192AECD04B7808781B0203437F
:10C2F000C8788E789B0200029B1830431818A84219
:10C30000EDDDDEE7182D2FD16F4F3B78002B00D0ED
:10C3100074E7C11CCD788B782D021D432B00583B50
:10C320008F2B0BD84B790A791B0213435B19E82B2F
:10C3300004DC4E78C37836021E4307D00023012068
:10C34000019AE37004332071D37760E7781C0622EA
:10C3500000F00EFB01232800BD60FE603B70FFF77C
:10C360003FFF0028EAD18DE7FF2D06D103300622DA
:10C37000594900F0FDFA082363E7F02D20D1FFF7BB
:10C380003FFA0500FFF73CFA401B6328FADD8022E4
:10C39000019BD205D97F514B02290ED9E1780029A2
:10C3A0000BD1D05840310143D150BFF34F8F4C4B8C
:10C3B0004C4ADA60BFF34F8FFEE7D0582021F2E7F6
:10C3C000162D00D01AE7E725AD021921280000F04C
:10C3D00055FA2A780123CF2A59D1AA69110A2A7F4E
:10C3E00012060A43904252D16B68297A1B0A090649
:10C3F00019430DD0FC202A79EB7812021A439202DD
:10C40000551880020223854241D8374882423EDDDA
:10C41000E7239B021A69187D120A000610430DD00B
:10C420001A7CDD7B12022A43FC2592021018AD0211
:10C430000323A8422BD82C48824228DD002916D19C
:10C44000E725AD022B69297D1B0A0906194325D072
:10C45000EB681802000C800200F010FA6B691A0AEF
:10C460002B7E1B061343984218D005230FE0E725C7
:10C47000AD022B681802000C800200F0FFF9AB68D7
:10C480002A7B1B0A12061A4304239042D8D0DBB23F
:10C4900023715A425341E3700423D2E60023F6E7A6
:10C4A00018230120A37000230421E0702371019C54
:10C4B0001370E177ABE61821A1701169E07021716A
:10C4C00001991070CB7701E7C82B0020FF03000013
:10C4D000B8200020FF9F0300A40000101C050000EE
:10C4E00000ED00E00400FA05FF0F000070B5040045
:10C4F00002284DD12E4B1A78012A02D0022A2FD0C1
:10C5000070BD9A685D1C501C9860EA78A978120288
:10C510000A4369792E79090231438918884209DA78
:10C52000FFF75EFE0028EBD00222214B1A61921821
:10C530001A70E5E76978587809020143D9609A6072
:10C540001C701C4B0903C918900280225200FFF78F
:10C5500045FE0028D4D00322154B1A610132E7E7CB
:10C560009A68DC78501CDA685E79511C1A799860F8
:10C57000120222439C79D96024023443121990425A
:10C5800004DA0C4B0903C9188002DEE70322CFE767
:10C590000328B5D1064B1A78012A07D0022AAFD159
:10C5A000DA6898681103034A8918EDE79868B7E7D5
:10C5B000C82B0020B820002000200F4B70B5196850
:10C5C0000E4C4A1CE06015007F2A00DD0500A32008
:10C5D0005E680B4CC000AE4204D122589A6801320A
:10C5E0009A6070BD245807481A6044547F2AF8DDC9
:10C5F00000221A60F5E7C046DC2B0020FC2000403A
:10C6000000200040F02B0020A0221A49D2055358E8
:10C61000194830B503405350A3248023A1211D2580
:10C62000C900E4009B05135114485350144B1D508E
:10C6300080251448ED0515501E2513481D508020F7
:10C64000C001105150500E2280205A500F490D3A0F
:10C650005A500F4940055850A0200421C0001950DD
:10C660000C489A600160C120800019501A600A4B82
:10C670001A7330BD74070000FFF8FFFF0C050000BF
:10C68000002000401C050000140500006C0500009F
:10C690002405000000E100E0DC2B0020064B1B7BA2
:10C6A000002B08D0054B064AD050064B1A6A002AC8
:10C6B000FCD000221A627047DC2B00201C05000011
:10C6C00000200040FC200040064B10B51B7B0400FE
:10C6D000002B03D110BD0134FFF7E0FF20780028C4
:10C6E000F9D1F7E7DC2B0020074B70B51B7B002B43
:10C6F00003D004004518AC4200D170BD2078FFF78C
:10C70000CDFF0134F7E7C046DC2B0020054B187B3A
:10C71000002805D018685B68C01A431E9841C0B253
:10C720007047C046DC2B0020084B1A7B101E0CD033
:10C730005A6819680020914207D00548511C596079
:10C74000805C7F2901DD00225A607047DC2B0020CD
:10C75000F02B0020F8B50023324C050022784370FE
:10C76000072A01D12370636007260627FFF7CEFF53
:10C77000002802D02378072B05D1207807384342C0
:10C780005841C0B2F8BDFFF7CFFF0300207806285C
:10C79000ECD800F0A9F80409140F22353C00BC3B8A
:10C7A0005A4253412370E1E70322CF2B00D00022ED
:10C7B0002270DBE72B70237263720223F2E7227A86
:10C7C000617A9A18D2B22272521862720022E36021
:10C7D0006260934212D00423E4E762681F2A08DCF7
:10C7E000A9188B70217A5B18617ADBB223725B180F
:10C7F0006372E368013262609A42B7DB0523D1E7D6
:10C80000227A9A4201D12770B0E70023CAE7627A00
:10C810009A4203D1E36826706B70A7E70023237068
:10C820006360A3E7702C0020F8B5060037001248BB
:10C83000FFF74AFF3078FFF731FF70783478FFF761
:10C840002DFF75786519EDB26419E4B27278BB1BDF
:10C850009A4207DC2800FFF721FF2000FFF71EFFA8
:10C860000120F8BDB878FFF719FFBB780137ED1844
:10C87000EDB26419E4B2E9E794CA03000123F7B505
:10C880000024012701915B42019A94420FDB0022B0
:10C8900080241000012124060B4202D02500D5403F
:10C8A000284301325B08202AF6D1C043FEBD07258C
:10C8B0000022065D3E4202D03900A9400A437608B4
:10C8C000013DF7D21206534008221D005B00002DE7
:10C8D00001DA04494B40013AD2B2002AF5D10134C1
:10C8E000D2E7C046B71DC10402B4714649084900E9
:10C8F000095C49008E4402BC7047C046084B10B525
:10C900000400002B02D0002100E000BF054B186896
:10C91000836A002B00D09847200000F041F8C04601
:10C920000000000098CA030070B500260C4D0D4CA5
:10C93000641BA410A64209D1002600F033F80A4D6A
:10C940000A4C641BA410A64205D170BDB300EB587D
:10C9500098470136EEE7B300EB5898470136F2E707
:10C960001C2500201C2500201C250020202500203F
:10C97000002310B59A4200D110BDCC5CC4540133E1
:10C98000F8E703001218934200D170471970013381
:10C99000F9E70023C25C0133002AFBD1581E70471F
:10C9A000FEE7C046F8B5C046F8BC08BC9E467047D6
:10C9B000F8B5C046F8BC08BC9E4670476E72663536
:10C9C000315F73646B2F6E726635313832322F539C
:10C9D0006F757263652F626C652F626C655F73653E
:10C9E0007276696365732F626C655F6469732E6329
:10C9F000006E726635315F73646B2F6E726635310F
:10CA00003832322F536F757263652F73645F636FB3
:10CA10006D6D6F6E2F736F66746465766963655FA5
:10CA200068616E646C65722E63006E726635315F8C
:10CA300073646B2F6E726635313832322F536F75D7
:10CA40007263652F6170705F636F6D6D6F6E2F61C4
:10CA500070705F74696D65722E63007372632F6D01
:10CA600061696E2E63000A180100089A0AC0B74374
:10CA70007B949E4F7F1C000000004372617A7966B0
:10CA80006C6965204C6F6164657200426974637201
:10CA9000617A6500BCCF0000BC24002000000000CB
:08CAA00068D6FF7F01000000D1
:10CAA800000000000200000000000000000000007C
:10CAB800000000000024F400FFFF0000FFFFFF005B
:10CAC8001A00000000000000000000000000000044
:10CAD800000000000000000000000000000000004E
:10CAE8009F2000200100000020000000000000003E
:10CAF800000000009C200020010000002000000031
:10CB0800000000000C000000000000000000000011
:10CB1800000000000000000000000000000000000D
:10CB280012000000000000000000000000000000EB
:10CB380000000000000000000000000011110311B7
:10CB48001103E7E7E7E7E700000000000001000045
:10CB5800E803000040420F0042000000000000000F
:10CB680000000000000000000000000000000000BD
:10CB780000000000000000000000000000000000AD
:10CB8800000000000000000000000000000000009D
:10CB9800000000000000000000000000000000008D
:10CF58000000000000000000BC24002000000000C9
:10CF680000000000000000000000000000000000B9
:10CF780000000000000000000000000000000000A9
:10CF88000000000000000000000000000000000099
:10CF98000000000000000000000000000000000089
:10CFA8000000000000000000000000000000000079
:10CFB800000000000000000000000000E9A00300DD
:04CFC800C1A0030001
:040000033000B631E2
:00000001FF
