:020000023000CC
:10F0000000400020CDF7030009F803000BF80300CF
:10F0100000000000000000000000000000000000F0
:10F020000000000000000000000000000DF80300D8
:10F0300000000000000000000FF8030011F80300BA
:10F04000F0B55F4656464D464446F0B4002900DC14
:10F05000B9E00918884601222021022452420123E6
:10F060008C4610270826A3462CE0584C4A00251C45
:10F070005540002963DB554C5100251C4D40002AAA
:10F0800064DB524C4A00251C5540002965DB4F4C7F
:10F090005100251C4D40002A66DB4C4C4A00251CC3
:10F0A0005540002967DB494C5100251C4D40002A82
:10F0B00068DB464C4A00251C5540002969DB0130BD
:10F0C00040456AD001781D1C0D404C08E9012342DF
:10F0D00003D04021002D00D0C021654664080D43B7
:10F0E000234200D0291C0D1C64083D43234200D05C
:10F0F000291C0D1C64083543234200D0291C04251B
:10F1000064080D43234200D0291C5D4664080D436A
:10F11000234200D0291C0D1C1D43640800D0291C6B
:10F1200009062A4C4A405100251C4D40002A9CDA11
:10F13000264C291C4A00251C554000299BDA234CEB
:10F140002A1C5100251C4D40002A9ADA1F4C291C0C
:10F150004A00251C5540002999DA1C4C2A1C5100F4
:10F16000251C4D40002A98DA184C291C4A00251C01
:10F170005540002997DA154C2A1C5100251C4D409A
:10F18000002A96DA114C291C4A00251C55400029FA
:10F1900095DA01302A1C404594D11F230021012417
:10F1A000201C9840051C0D43081C144200D0281C4C
:10F1B000011C5208013BF3D2C0433CBC9046994627
:10F1C000A246AB46F0BD01225242E6E7B71DC1049C
:10F1D0000E490F4AA823DB00F0B5CA50A022520006
:10F1E00000238B50A024012380250A48CB608C4645
:10F1F0000B60171C0026E405AD018B58002BFCD0DA
:10F200006346DE5123586B402350F6E700900040E0
:10F210006A1800000405000008B50849084B0122DF
:10F220001B684A6007494A605A1C04D01A6882F376
:10F2300008885B689847FFF7CBFFC0460080004016
:10F24000801000100090004018DF70471B4B1B78A7
:10F25000012B00D070471A4B1B681A07FAD1194AC4
:10F26000F02312681A4003D0102A01D0302A03D1AB
:10F27000154A12681A4210D0124AF02312681A4036
:10F28000402AE7D1104A12681A42E3D1C1238022F2
:10F290000121DB00D205D150DCE70C4A0C4B1A608F
:10F2A0000C4B802212021A60044B1B78012BD1D127
:10F2B000034B1B681A07DFD0CCE7C046E00F00F015
:10F2C000E40F00F0E80F00F0EC0F00F0DFFF07C0E4
:10F2D00004050040186C0040F8B54D4644465F46B2
:10F2E0005646F0B4D54C032323708022C02301215D
:10F2F000D205DB00D1508020D14B0006D050D14840
:10F30000A023DB0519508025A120AD01C0001D50B0
:10F31000E520C00019508025CB48ED001D50CB489A
:10F320000C251D50802311605B00D1580029FCD0B2
:10F33000C74BA221A125ED00C900072602225E507D
:10F34000C4485A51A822D2009850A022002052004E
:10F350009850C14FC14A9F50A2225200985001229A
:10F36000DA601A60BE4B5E505851802080001A50FF
:10F37000BC4B1D6880235B059D4276D8BA4BAD0A15
:10F380001D60A023DB055B585B0C1A4000D1227086
:10F39000A223DB00994680239B02A020A02298464E
:10F3A000C005AF4B5200AA49AC461FE09F58002F42
:10F3B00006D0AE4E9D5085598027BF017D408551B6
:10F3C0008D58002D0CD0AA4EA827B2460025FE006D
:10F3D00057468D509F5101279D50DF601F60277059
:10F3E000A2277F00CE599A4D002E40D14E46855916
:10F3F000A0274646FF053540D8D09E4B8022D20537
:10F40000D15806208143D150D05880212678084316
:10F410000321314049000143D15023786546022B36
:10F4200000D17EE0944F1921ED19AD02281CFFF7A1
:10F4300007FE2B78CF2B2BD0FFF7EEFE013B9B0A6C
:10F4400001331B02F361286803021B0C9B027361EA
:10F450002B79EA781B021343301C9B021030B361F6
:10F46000FFF7F2FE002800D133E1FFF7B1FE0026DE
:10F47000EE51824FA826BB46F7005E46DE510027BC
:10F480009F500127DF601F606F6002252570ADE788
:10F49000A9692B7F0A0A1B0613439842CCD16A68DC
:10F4A0002F7A130A3F061F430CD02B79EA781B02F0
:10F4B00013439B02FC22D91992029142BCD8704A94
:10F4C0009342B9DD2B69287D994606061B0A8046C2
:10F4D0001E430CD02B7CEA7B1B0213439B02FC22B5
:10F4E000991992029142A7D8654A9342A4DD002F50
:10F4F00000D052E1002E00D025E1002F00D032E1F3
:10F500004E464746330A3A06134300D0C4E05D4BEB
:10F51000564A02219950A121C9005D5000219950FD
:10F520008AE7594B0122FA50A123DB002021F95030
:10F53000E321C9007A504449402078508021C90015
:10F54000F950EB21C9007A508021C903F9504F4886
:10F55000434BA821C9005850A02149000020585011
:10F56000DA601A605A58002AFCD0A0223C495200A6
:10F570008858A0253A4B6D000028F9D03F49A822B1
:10F58000D200995000225A51002601228021DA60CF
:10F59000B0461A608901A022A2278026334CD205EA
:10F5A0008C46FF00B6025959002905D040465851F3
:10F5B0001159604641401151D059A021C905304030
:10F5C000F1D1214B8022D203314CCA5001220A5181
:10F5D0008024A403CC50224B2C4CA821C9005C50A1
:10F5E000A02149005850DA601A605A58002AFCD00D
:10F5F000A0231B485B00C458A02219495200002CCC
:10F60000F9D0234BA0240C20E405E0502148A82386
:10F61000DB00C85000238B50802501231348CB60AA
:10F620008C460B60171C0026AD018B58002BFCD0BC
:10F630006346DE5123586B402350F6E7202000201C
:10F6400004060000340700000C0500004407000019
:10F65000008000406CDC020068890900440500005D
:10F6600000900040801000102420002004050000BD
:10F6700048E801001C050000FFFF3F00127A00006F
:10F68000FF0F000000E00140140700006A180000AE
:10F69000540700003E4900000133484E9B080133E7
:10F6A000F360EF68301C3B021B0C9B0273602B7CE9
:10F6B000EA7B1B0213439B02B360FFF7C5FD0E28D4
:10F6C00000D024E76F682B7A3A0A1B06134300D058
:10F6D000B4E629692B7D0A0A1B06134316D0013BA9
:10F6E0009B0A01331B02F361EA68301C13021B0CF6
:10F6F0009B0273612B7CEA7B1B0213439B0210303D
:10F70000B361FFF7A1FD002800D0AEE62C4B2D4AD7
:10F7100002219950A121C9005D5000219950012377
:10F7200023708022284BD205D15806208143D15026
:10F73000D058802124780843032121404900014307
:10F74000D150FFF769FDE9680802000C8002311C06
:10F75000FFF776FC6B691A0A2B7E1B06134398424F
:10F7600000D069E6C9E67B1E144E9B080133F360A6
:10F77000286803021B0C9B0273602B79EA781B023A
:10F7800013439B02301CB360FFF75EFD0E2899D037
:10F7900029692A7D89469046B2E629680802000C4C
:10F7A0008002391CFFF74CFCAB681A0A2B7B1B0646
:10F7B0001343984200D03FE69CE6C046002000205C
:10F7C00000E00140040500001C0500000848026834
:10F7D00003210A4302600749074A084B9B1A03DDCD
:10F7E000043BC858D050FBDC05488047054800471B
:10F7F000240500401CF803000020002024200020E5
:10F800004DF20300D9F20300FEE7FEE7FEE7FEE754
:04F81000FEE7FEE72A
:08F81400B8FFFF7F01000000B6
:10F81C0003000000000000000000000000000000D9
:10F82C0001000000000000000000000000000000CB
:04F83C0003000000C5
:040000033000F7CD05
:00000001FF
