:020000023000CC
:10F0000000400020C1F70300FDF70300FFF70300F5
:10F0100000000000000000000000000000000000F0
:10F0200000000000000000000000000001F80300E4
:10F03000000000000000000003F8030005F80300D2
:10F04000F0B5DE4657464E464546E0B500295FDD41
:10F050000123884601259C4601339B4606338044A4
:10F060006D42042720269946102449E08021C023C0
:10F070008A465946114200D15346174200D03343C5
:10F080004946114200D02343144201D049460B4364
:10F09000164200D03B43510601D559460B43D209D5
:10F0A00001D0624613431B066B405D00002B01DA62
:10F0B000234B5D406A00002D01DA214B5A4053007A
:10F0C000002A01DA1E4A53405A00002B01DA1C4B79
:10F0D0005A405300002A01DA194A53405A00002BC3
:10F0E00001DA174B5A405300002A01DA144A534000
:10F0F0005D00002B01DA124B5D400130804509D0E4
:10F10000634602781342B1D1002140238A46B0E71A
:10F1100001256D42802400230020012224062A427A
:10F1200002D02100D940084301336D08202BF6D1CD
:10F13000C0433CBC90469946A246AB46F0BDC04693
:10F14000B71DC104A8230E4A0E49DB0070B5D1508B
:10F15000A0210023A02480250026490053500A48FE
:10F160000133D360E4051360AD015358002BFCD08C
:10F17000565023586B4023505358002BF5D0F7E7D7
:10F18000009000406A18000004050000012280B5CC
:10F190000749084B00AF1B684A6007494A605A1C80
:10F1A00004D01A6882F308885B689847FFF7CAFFA3
:10F1B00000800040801000100090004018DF704771
:10F1C0001B4B1B78012B00D070471A4B1B681B0789
:10F1D000FAD1F022184B1B68134001D0102B24D118
:10F1E000164B1B68134210D0F022134B1B681340C0
:10F1F000402BE9D1114B1B681342E5D18022C1237A
:10F200000121D205DB00D150DEE70D4B0D4A1A601B
:10F2100080220D4B12021A60054B1B78012BD3D1B3
:10F22000044B1B681B07DFD0CEE7302BD8D0DBE7C1
:10F23000E00F00F0E40F00F0E80F00F0EC0F00F03A
:10F2400004050040DFFF07C0186C0040F8B5032339
:10F25000DE4657464E4645469C4AE0B5137080222E
:10F26000C02301218020D205DB00D150984B00063D
:10F27000D050A0239748DB0519508024A120A40179
:10F28000C0001C50E5208024C00019509248E400C2
:10F290001C500C2491481C501160FF315358002B16
:10F2A000FCD0A220A124072602228D4BC000E4003E
:10F2B0001E501A51A8228B49D2009950A022002139
:10F2C00052009950884F894A9F50A222520099506B
:10F2D000443AFF3ADA601A60854B1E50195180217A
:10F2E00089005A508021834B49051B688B4200D905
:10F2F000B9E19B0A984641467F4B1960A023DB0584
:10F300001B585B0C1A4000D1DDE07C4BA0219C46D1
:10F3100080239B019946764A4900A024A227802693
:10F320006F48E405FF00B602E35933403CD155581D
:10F33000002D06D0535063464D46E3586B4065465A
:10F3400063514358002B27D0A825ED00AA466C4DE9
:10F350000023AB46435055465B46535100235B4D5B
:10F3600053500133D36013602B704433FF33C358C1
:10F37000002BD9D0A2240023594864000351A824AB
:10F38000604EE400165153500133D3601360436064
:10F390004E4801330370C0E7A2235B00C358002B23
:10F3A000E8D1E3593340C2D080210623564AC9052B
:10F3B000885898438850454800788E58400003404C
:10F3C0008020334303438B50404B1B78022B00D1EA
:10F3D000A2E04E4C4444A4022378CF2B71D11921D2
:10F3E0002000FFF72DFEA3691A0A237F1B06134393
:10F3F000984266D16368267A1B0A36061E4300D1FE
:10F4000033E12379E2781B021343FC229B02991912
:10F410009202914255D83E4A934252DD2369227DA1
:10F42000994617061B0A90461F4300D026E1236821
:10F4300031001B021B0C9B0218009846FFF700FED0
:10F44000A3681A0A237B1B061343834239D1731E18
:10F450001E4A9B0801331361434693602379E27887
:10F460001B021343194A9B02101DD360FFF7A6FE2F
:10F470000E2800D128E123691A0A237D1B061343B5
:10F4800016D00133114A9B0801331361E3681B0254
:10F490001B0C9B029360237CE27B1B0213430B4AF1
:10F4A0009B02101DD360FFF789FE0E2800D10BE1EF
:10F4B0000221184B114A9950A121C9005C5000212A
:10F4C0009950FFF763FE014B1A701EE700200020E1
:10F4D00004060000340700000C050000440700008B
:10F4E000008000406CDC02006889090044050000CF
:10F4F000009000408010001028200020040500002B
:10F5000048E80100127A00001C050000FFFF3F00E0
:10F51000FF0F000000E0014001239D4A2021A3507D
:10F52000A122D200A150E3214020C9006350994993
:10F5300060500D39FF39A150EB21C9006350802183
:10F54000C903A150A821944A9448C9005050A02151
:10F55000002049005050D36013605358002BFCD05A
:10F56000A0218D4A49005358002BFCD0A8238C4879
:10F57000DB00D050002701235750D3601360802256
:10F58000A021A023A22680259201B8469446824855
:10F59000844C4900DB05F600AD024258002A46D0F3
:10F5A0004246674642501A597A401A519A592A429D
:10F5B000F3D1A02280237749D205DB0353500123E6
:10F5C00079481350802080035050734A7348343177
:10F5D0005050A021002049005050D3601360535870
:10F5E000002BFCD0A0206C4940000B58002BFCD015
:10F5F000A0220C246C4BD205D450A82300256B4CC0
:10F60000DB00CC5001230D508026A020CB60624C43
:10F610000B6064494000B6012358002BFCD02550F4
:10F620005358734053502358002BF5D0F7E79A599D
:10F630002A42B2D1BDE7013B9B0A5D4A01331B025E
:10F64000136223681B021B0C9B0293612379E278EF
:10F650001B021343564A9B0210001430D361FFF77C
:10F66000ADFD002836D0FFF76DFD2369227D994658
:10F6700017061B0A90461F4300D119E7237CE27B43
:10F680001B021343FC229B02D9199202914200D91A
:10F6900017E7484A934200DC13E7002E56D1E3688F
:10F6A00039001802000C8002FFF7CAFC63691A0ACD
:10F6B000237E1B061343834200D002E74B461A0AFF
:10F6C00043461B061343DCE663681A0A237A1B06CB
:10F6D0001343B0D123691A0A237D1B06134317D0A5
:10F6E000013B9B0A324A01331B021362E3681B028F
:10F6F0001B0C9B029361237CE27B1B0213432C4A6D
:10F700009B0210001430D361FFF758FD0028AAD1E6
:10F710000221294B234A9950A121C9005C500021A4
:10F720009950012380210624214AC9051370234AD8
:10F730001F4B8858A04388501B7888585B00234093
:10F740000343802003438B50FFF720FD23683100E3
:10F750001B021B0C9B0218009846FFF771FCA36864
:10F760001A0A237B1B061343834200D0A9E6E368F1
:10F7700039001802000C8002FFF762FC63691A0A64
:10F78000237E1B061343834200D160E699E6C04600
:10F79000140700000C050000009000406A180000EB
:10F7A000127A000004050000540700003E490000E2
:10F7B00000200020FF0F000000E001401C050000B9
:10F7C0000848026803210A4302600749074A084BB8
:10F7D0009B1A03DD043BC858D050FBDC054880472A
:10F7E000054800472405004018F8030000200020C9
:10F7F00028200020C1F103004DF20300FEE7FEE7E0
:10F80000FEE7FEE7FEE7FEE7F8B5C046F8B5C046FE
:08F81000B0FFFF7F01000000C2
:10F8180003000000030000000000000000000000DA
:10F8280000000000010000000000000000000000CF
:08F83800000000000024F400B0
:10FFE000303B434632313B523D423100000000007D
:10FFF0000000000000000000000000000000000001
:040000033000F7C111
:00000001FF
